{
  "address": "0x6FaE5604c46aAF4bdbBd44187793D990BD78161e",
  "abi": [
    {
      "inputs": [
        {
          "internalType": "string",
          "name": "uri_",
          "type": "string"
        },
        {
          "internalType": "uint256",
          "name": "updateInterval",
          "type": "uint256"
        }
      ],
      "stateMutability": "nonpayable",
      "type": "constructor"
    },
    {
      "anonymous": false,
      "inputs": [
        {
          "indexed": true,
          "internalType": "address",
          "name": "account",
          "type": "address"
        },
        {
          "indexed": true,
          "internalType": "address",
          "name": "operator",
          "type": "address"
        },
        {
          "indexed": false,
          "internalType": "bool",
          "name": "approved",
          "type": "bool"
        }
      ],
      "name": "ApprovalForAll",
      "type": "event"
    },
    {
      "anonymous": false,
      "inputs": [
        {
          "indexed": true,
          "internalType": "bytes32",
          "name": "id",
          "type": "bytes32"
        }
      ],
      "name": "ChainlinkCancelled",
      "type": "event"
    },
    {
      "anonymous": false,
      "inputs": [
        {
          "indexed": true,
          "internalType": "bytes32",
          "name": "id",
          "type": "bytes32"
        }
      ],
      "name": "ChainlinkFulfilled",
      "type": "event"
    },
    {
      "anonymous": false,
      "inputs": [
        {
          "indexed": true,
          "internalType": "bytes32",
          "name": "id",
          "type": "bytes32"
        }
      ],
      "name": "ChainlinkRequested",
      "type": "event"
    },
    {
      "anonymous": false,
      "inputs": [
        {
          "indexed": true,
          "internalType": "address",
          "name": "from",
          "type": "address"
        },
        {
          "indexed": true,
          "internalType": "address",
          "name": "to",
          "type": "address"
        }
      ],
      "name": "OwnershipTransferRequested",
      "type": "event"
    },
    {
      "anonymous": false,
      "inputs": [
        {
          "indexed": true,
          "internalType": "address",
          "name": "from",
          "type": "address"
        },
        {
          "indexed": true,
          "internalType": "address",
          "name": "to",
          "type": "address"
        }
      ],
      "name": "OwnershipTransferred",
      "type": "event"
    },
    {
      "anonymous": false,
      "inputs": [
        {
          "indexed": true,
          "internalType": "bytes32",
          "name": "requestId",
          "type": "bytes32"
        },
        {
          "indexed": false,
          "internalType": "bool",
          "name": "approved",
          "type": "bool"
        },
        {
          "indexed": false,
          "internalType": "string",
          "name": "lastChecked",
          "type": "string"
        }
      ],
      "name": "RequestVolume",
      "type": "event"
    },
    {
      "anonymous": false,
      "inputs": [
        {
          "indexed": true,
          "internalType": "address",
          "name": "operator",
          "type": "address"
        },
        {
          "indexed": true,
          "internalType": "address",
          "name": "from",
          "type": "address"
        },
        {
          "indexed": true,
          "internalType": "address",
          "name": "to",
          "type": "address"
        },
        {
          "indexed": false,
          "internalType": "uint256[]",
          "name": "ids",
          "type": "uint256[]"
        },
        {
          "indexed": false,
          "internalType": "uint256[]",
          "name": "values",
          "type": "uint256[]"
        }
      ],
      "name": "TransferBatch",
      "type": "event"
    },
    {
      "anonymous": false,
      "inputs": [
        {
          "indexed": true,
          "internalType": "address",
          "name": "operator",
          "type": "address"
        },
        {
          "indexed": true,
          "internalType": "address",
          "name": "from",
          "type": "address"
        },
        {
          "indexed": true,
          "internalType": "address",
          "name": "to",
          "type": "address"
        },
        {
          "indexed": false,
          "internalType": "uint256",
          "name": "id",
          "type": "uint256"
        },
        {
          "indexed": false,
          "internalType": "uint256",
          "name": "value",
          "type": "uint256"
        }
      ],
      "name": "TransferSingle",
      "type": "event"
    },
    {
      "anonymous": false,
      "inputs": [
        {
          "indexed": false,
          "internalType": "string",
          "name": "value",
          "type": "string"
        },
        {
          "indexed": true,
          "internalType": "uint256",
          "name": "id",
          "type": "uint256"
        }
      ],
      "name": "URI",
      "type": "event"
    },
    {
      "inputs": [],
      "name": "acceptOwnership",
      "outputs": [],
      "stateMutability": "nonpayable",
      "type": "function"
    },
    {
      "inputs": [],
      "name": "addWatcher",
      "outputs": [],
      "stateMutability": "nonpayable",
      "type": "function"
    },
    {
      "inputs": [
        {
          "internalType": "uint256",
          "name": "",
          "type": "uint256"
        }
      ],
      "name": "addressesToVerify",
      "outputs": [
        {
          "internalType": "address",
          "name": "",
          "type": "address"
        }
      ],
      "stateMutability": "view",
      "type": "function"
    },
    {
      "inputs": [],
      "name": "approved",
      "outputs": [
        {
          "internalType": "bool",
          "name": "",
          "type": "bool"
        }
      ],
      "stateMutability": "view",
      "type": "function"
    },
    {
      "inputs": [
        {
          "internalType": "address",
          "name": "account",
          "type": "address"
        },
        {
          "internalType": "uint256",
          "name": "id",
          "type": "uint256"
        }
      ],
      "name": "balanceOf",
      "outputs": [
        {
          "internalType": "uint256",
          "name": "",
          "type": "uint256"
        }
      ],
      "stateMutability": "view",
      "type": "function"
    },
    {
      "inputs": [
        {
          "internalType": "address[]",
          "name": "accounts",
          "type": "address[]"
        },
        {
          "internalType": "uint256[]",
          "name": "ids",
          "type": "uint256[]"
        }
      ],
      "name": "balanceOfBatch",
      "outputs": [
        {
          "internalType": "uint256[]",
          "name": "",
          "type": "uint256[]"
        }
      ],
      "stateMutability": "view",
      "type": "function"
    },
    {
      "inputs": [],
      "name": "batchVerify",
      "outputs": [],
      "stateMutability": "nonpayable",
      "type": "function"
    },
    {
      "inputs": [
        {
          "internalType": "bytes",
          "name": "",
          "type": "bytes"
        }
      ],
      "name": "checkUpkeep",
      "outputs": [
        {
          "internalType": "bool",
          "name": "upkeepNeeded",
          "type": "bool"
        },
        {
          "internalType": "bytes",
          "name": "",
          "type": "bytes"
        }
      ],
      "stateMutability": "view",
      "type": "function"
    },
    {
      "inputs": [],
      "name": "counter",
      "outputs": [
        {
          "internalType": "uint256",
          "name": "",
          "type": "uint256"
        }
      ],
      "stateMutability": "view",
      "type": "function"
    },
    {
      "inputs": [
        {
          "internalType": "bytes32",
          "name": "_requestId",
          "type": "bytes32"
        },
        {
          "internalType": "bool",
          "name": "_approved",
          "type": "bool"
        }
      ],
      "name": "fulfill",
      "outputs": [],
      "stateMutability": "nonpayable",
      "type": "function"
    },
    {
      "inputs": [],
      "name": "interval",
      "outputs": [
        {
          "internalType": "uint256",
          "name": "",
          "type": "uint256"
        }
      ],
      "stateMutability": "view",
      "type": "function"
    },
    {
      "inputs": [
        {
          "internalType": "address",
          "name": "account",
          "type": "address"
        },
        {
          "internalType": "address",
          "name": "operator",
          "type": "address"
        }
      ],
      "name": "isApprovedForAll",
      "outputs": [
        {
          "internalType": "bool",
          "name": "",
          "type": "bool"
        }
      ],
      "stateMutability": "view",
      "type": "function"
    },
    {
      "inputs": [],
      "name": "lastChecked",
      "outputs": [
        {
          "internalType": "string",
          "name": "",
          "type": "string"
        }
      ],
      "stateMutability": "view",
      "type": "function"
    },
    {
      "inputs": [],
      "name": "lastTimeStamp",
      "outputs": [
        {
          "internalType": "uint256",
          "name": "",
          "type": "uint256"
        }
      ],
      "stateMutability": "view",
      "type": "function"
    },
    {
      "inputs": [
        {
          "internalType": "address",
          "name": "",
          "type": "address"
        }
      ],
      "name": "minted",
      "outputs": [
        {
          "internalType": "bool",
          "name": "",
          "type": "bool"
        }
      ],
      "stateMutability": "view",
      "type": "function"
    },
    {
      "inputs": [],
      "name": "owner",
      "outputs": [
        {
          "internalType": "address",
          "name": "",
          "type": "address"
        }
      ],
      "stateMutability": "view",
      "type": "function"
    },
    {
      "inputs": [
        {
          "internalType": "bytes",
          "name": "",
          "type": "bytes"
        }
      ],
      "name": "performUpkeep",
      "outputs": [],
      "stateMutability": "nonpayable",
      "type": "function"
    },
    {
      "inputs": [
        {
          "internalType": "address",
          "name": "_wallet",
          "type": "address"
        }
      ],
      "name": "requestVolumeData",
      "outputs": [
        {
          "internalType": "bytes32",
          "name": "requestId",
          "type": "bytes32"
        }
      ],
      "stateMutability": "nonpayable",
      "type": "function"
    },
    {
      "inputs": [
        {
          "internalType": "address",
          "name": "from",
          "type": "address"
        },
        {
          "internalType": "address",
          "name": "to",
          "type": "address"
        },
        {
          "internalType": "uint256[]",
          "name": "ids",
          "type": "uint256[]"
        },
        {
          "internalType": "uint256[]",
          "name": "amounts",
          "type": "uint256[]"
        },
        {
          "internalType": "bytes",
          "name": "data",
          "type": "bytes"
        }
      ],
      "name": "safeBatchTransferFrom",
      "outputs": [],
      "stateMutability": "nonpayable",
      "type": "function"
    },
    {
      "inputs": [
        {
          "internalType": "address",
          "name": "from",
          "type": "address"
        },
        {
          "internalType": "address",
          "name": "to",
          "type": "address"
        },
        {
          "internalType": "uint256",
          "name": "id",
          "type": "uint256"
        },
        {
          "internalType": "uint256",
          "name": "amount",
          "type": "uint256"
        },
        {
          "internalType": "bytes",
          "name": "data",
          "type": "bytes"
        }
      ],
      "name": "safeTransferFrom",
      "outputs": [],
      "stateMutability": "nonpayable",
      "type": "function"
    },
    {
      "inputs": [
        {
          "internalType": "address",
          "name": "operator",
          "type": "address"
        },
        {
          "internalType": "bool",
          "name": "approved",
          "type": "bool"
        }
      ],
      "name": "setApprovalForAll",
      "outputs": [],
      "stateMutability": "nonpayable",
      "type": "function"
    },
    {
      "inputs": [
        {
          "internalType": "bytes4",
          "name": "interfaceId",
          "type": "bytes4"
        }
      ],
      "name": "supportsInterface",
      "outputs": [
        {
          "internalType": "bool",
          "name": "",
          "type": "bool"
        }
      ],
      "stateMutability": "view",
      "type": "function"
    },
    {
      "inputs": [],
      "name": "tempMint",
      "outputs": [],
      "stateMutability": "nonpayable",
      "type": "function"
    },
    {
      "inputs": [
        {
          "internalType": "address",
          "name": "to",
          "type": "address"
        }
      ],
      "name": "transferOwnership",
      "outputs": [],
      "stateMutability": "nonpayable",
      "type": "function"
    },
    {
      "inputs": [
        {
          "internalType": "uint256",
          "name": "_value",
          "type": "uint256"
        }
      ],
      "name": "uintToString",
      "outputs": [
        {
          "internalType": "string",
          "name": "",
          "type": "string"
        }
      ],
      "stateMutability": "pure",
      "type": "function"
    },
    {
      "inputs": [
        {
          "internalType": "uint256",
          "name": "",
          "type": "uint256"
        }
      ],
      "name": "uri",
      "outputs": [
        {
          "internalType": "string",
          "name": "",
          "type": "string"
        }
      ],
      "stateMutability": "view",
      "type": "function"
    },
    {
      "inputs": [],
      "name": "volume",
      "outputs": [
        {
          "internalType": "uint256",
          "name": "",
          "type": "uint256"
        }
      ],
      "stateMutability": "view",
      "type": "function"
    },
    {
      "inputs": [
        {
          "internalType": "address",
          "name": "",
          "type": "address"
        }
      ],
      "name": "watchers",
      "outputs": [
        {
          "internalType": "bool",
          "name": "",
          "type": "bool"
        }
      ],
      "stateMutability": "view",
      "type": "function"
    },
    {
      "inputs": [],
      "name": "withdrawLink",
      "outputs": [],
      "stateMutability": "nonpayable",
      "type": "function"
    }
  ],
  "transactionHash": "0x01e85f531bd0afba177e24070bc947ed264ea8f93fa222e28c5c43f0a040ad31",
  "args": [
    "https://gateway.pinata.cloud/ipfs/QmPosh8tfsqc2utmhMCtdMh2vgySXx9rhuN8CoLJKq3b5K/",
    60000
  ],
  "numDeployments": 4,
  "solcInputHash": "68b29f5aced8e0574ac3c65f9eb08d82",
  "bytecode": "0x60a060405260016007553480156200001657600080fd5b5060405162005c4438038062005c4483398181016040528101906200003c91906200066a565b80338060008562000053816200020d60201b60201c565b50600073ffffffffffffffffffffffffffffffffffffffff168273ffffffffffffffffffffffffffffffffffffffff1603620000c6576040517f08c379a0000000000000000000000000000000000000000000000000000000008152600401620000bd9062000731565b60405180910390fd5b81600960006101000a81548173ffffffffffffffffffffffffffffffffffffffff021916908373ffffffffffffffffffffffffffffffffffffffff160217905550600073ffffffffffffffffffffffffffffffffffffffff168173ffffffffffffffffffffffffffffffffffffffff16146200014e576200014d816200022960201b60201c565b5b5050506200017673f97f4df75117a78c1a5a0dbb814af92458539fb46200035a60201b60201c565b6200019b73cc79157eb46f5624204f47ab42b3906caa40eab76200039e60201b60201c565b7f6331633565393238383038393465623662323764336361653139363730616133600c81905550600a670de0b6b3a76400006001620001db919062000782565b620001e7919062000812565b600d819055508060808181525050426010819055506000600f8190555050505062000920565b806002908051906020019062000225929190620003e2565b5050565b3373ffffffffffffffffffffffffffffffffffffffff168173ffffffffffffffffffffffffffffffffffffffff16036200029a576040517f08c379a000000000000000000000000000000000000000000000000000000000815260040162000291906200089a565b60405180910390fd5b80600a60006101000a81548173ffffffffffffffffffffffffffffffffffffffff021916908373ffffffffffffffffffffffffffffffffffffffff1602179055508073ffffffffffffffffffffffffffffffffffffffff16600960009054906101000a900473ffffffffffffffffffffffffffffffffffffffff1673ffffffffffffffffffffffffffffffffffffffff167fed8889f560326eb138920d842192f0eb3dd22b4f139c87a2c57538e05bae127860405160405180910390a350565b80600560006101000a81548173ffffffffffffffffffffffffffffffffffffffff021916908373ffffffffffffffffffffffffffffffffffffffff16021790555050565b80600660006101000a81548173ffffffffffffffffffffffffffffffffffffffff021916908373ffffffffffffffffffffffffffffffffffffffff16021790555050565b828054620003f090620008eb565b90600052602060002090601f01602090048101928262000414576000855562000460565b82601f106200042f57805160ff191683800117855562000460565b8280016001018555821562000460579182015b828111156200045f57825182559160200191906001019062000442565b5b5090506200046f919062000473565b5090565b5b808211156200048e57600081600090555060010162000474565b5090565b6000604051905090565b600080fd5b600080fd5b600080fd5b600080fd5b6000601f19601f8301169050919050565b7f4e487b7100000000000000000000000000000000000000000000000000000000600052604160045260246000fd5b620004fb82620004b0565b810181811067ffffffffffffffff821117156200051d576200051c620004c1565b5b80604052505050565b60006200053262000492565b9050620005408282620004f0565b919050565b600067ffffffffffffffff821115620005635762000562620004c1565b5b6200056e82620004b0565b9050602081019050919050565b60005b838110156200059b5780820151818401526020810190506200057e565b83811115620005ab576000848401525b50505050565b6000620005c8620005c28462000545565b62000526565b905082815260208101848484011115620005e757620005e6620004ab565b5b620005f48482856200057b565b509392505050565b600082601f830112620006145762000613620004a6565b5b815162000626848260208601620005b1565b91505092915050565b6000819050919050565b62000644816200062f565b81146200065057600080fd5b50565b600081519050620006648162000639565b92915050565b600080604083850312156200068457620006836200049c565b5b600083015167ffffffffffffffff811115620006a557620006a4620004a1565b5b620006b385828601620005fc565b9250506020620006c68582860162000653565b9150509250929050565b600082825260208201905092915050565b7f43616e6e6f7420736574206f776e657220746f207a65726f0000000000000000600082015250565b600062000719601883620006d0565b91506200072682620006e1565b602082019050919050565b600060208201905081810360008301526200074c816200070a565b9050919050565b7f4e487b7100000000000000000000000000000000000000000000000000000000600052601160045260246000fd5b60006200078f826200062f565b91506200079c836200062f565b9250817fffffffffffffffffffffffffffffffffffffffffffffffffffffffffffffffff0483118215151615620007d857620007d762000753565b5b828202905092915050565b7f4e487b7100000000000000000000000000000000000000000000000000000000600052601260045260246000fd5b60006200081f826200062f565b91506200082c836200062f565b9250826200083f576200083e620007e3565b5b828204905092915050565b7f43616e6e6f74207472616e7366657220746f2073656c66000000000000000000600082015250565b600062000882601783620006d0565b91506200088f826200084a565b602082019050919050565b60006020820190508181036000830152620008b58162000873565b9050919050565b7f4e487b7100000000000000000000000000000000000000000000000000000000600052602260045260246000fd5b600060028204905060018216806200090457607f821691505b6020821081036200091a5762000919620008bc565b5b50919050565b6080516152fa6200094a6000396000818161095d01528181610afe015261101701526152fa6000f3fe608060405234801561001057600080fd5b50600436106101ce5760003560e01c806374402d2111610104578063b3c6435f116100a2578063e985e9c511610071578063e985e9c51461050c578063f242432a1461053c578063f2fde38b14610558578063fd68990a14610574576101ce565b8063b3c6435f14610496578063c618a1e4146104a0578063e5ada13e146104be578063e9395679146104dc576101ce565b80638da5cb5b116100de5780638da5cb5b146104345780638dc654a214610452578063947a36fb1461045c578063a22cb4651461047a576101ce565b806374402d21146103f057806378277317146103fa57806379ba50971461042a576101ce565b80632eb2c2d6116101715780634e1273f41161014b5780634e1273f414610341578063596150d71461037157806361bc221a146103a15780636e04ff0d146103bf576101ce565b80632eb2c2d6146102eb5780633f3b3b27146103075780634585e33b14610325576101ce565b80630f6cee49116101ad5780630f6cee491461026357806319d40b081461026d5780631e7269c51461028b5780632002a0c0146102bb576101ce565b8062fdd58e146101d357806301ffc9a7146102035780630e89341c14610233575b600080fd5b6101ed60048036038101906101e891906134b9565b610590565b6040516101fa9190613508565b60405180910390f35b61021d6004803603810190610218919061357b565b610658565b60405161022a91906135c3565b60405180910390f35b61024d600480360381019061024891906135de565b61073a565b60405161025a91906136a4565b60405180910390f35b61026b6107ce565b005b610275610842565b60405161028291906135c3565b60405180910390f35b6102a560048036038101906102a091906136c6565b610855565b6040516102b291906135c3565b60405180910390f35b6102d560048036038101906102d091906135de565b610875565b6040516102e29190613702565b60405180910390f35b6103056004803603810190610300919061391a565b6108b4565b005b61030f610955565b60405161031c9190613508565b60405180910390f35b61033f600480360381019061033a9190613a44565b61095b565b005b61035b60048036038101906103569190613b54565b6109b9565b6040516103689190613c8a565b60405180910390f35b61038b600480360381019061038691906136c6565b610ad2565b60405161039891906135c3565b60405180910390f35b6103a9610af2565b6040516103b69190613508565b60405180910390f35b6103d960048036038101906103d49190613a44565b610af8565b6040516103e7929190613d01565b60405180910390f35b6103f8610b35565b005b610414600480360381019061040f91906136c6565b610bab565b6040516104219190613d4a565b60405180910390f35b610432610d07565b005b61043c610e9e565b6040516104499190613702565b60405180910390f35b61045a610ec8565b005b610464611015565b6040516104719190613508565b60405180910390f35b610494600480360381019061048f9190613d91565b611039565b005b61049e61104f565b005b6104a861110c565b6040516104b59190613508565b60405180910390f35b6104c6611112565b6040516104d391906136a4565b60405180910390f35b6104f660048036038101906104f191906135de565b6111a0565b60405161050391906136a4565b60405180910390f35b61052660048036038101906105219190613dd1565b611495565b60405161053391906135c3565b60405180910390f35b61055660048036038101906105519190613e11565b611529565b005b610572600480360381019061056d91906136c6565b6115ca565b005b61058e60048036038101906105899190613ed4565b6115de565b005b60008073ffffffffffffffffffffffffffffffffffffffff168373ffffffffffffffffffffffffffffffffffffffff1603610600576040517f08c379a00000000000000000000000000000000000000000000000000000000081526004016105f790613f86565b60405180910390fd5b60008083815260200190815260200160002060008473ffffffffffffffffffffffffffffffffffffffff1673ffffffffffffffffffffffffffffffffffffffff16815260200190815260200160002054905092915050565b60007fd9b67a26000000000000000000000000000000000000000000000000000000007bffffffffffffffffffffffffffffffffffffffffffffffffffffffff1916827bffffffffffffffffffffffffffffffffffffffffffffffffffffffff1916148061072357507f0e89341c000000000000000000000000000000000000000000000000000000007bffffffffffffffffffffffffffffffffffffffffffffffffffffffff1916827bffffffffffffffffffffffffffffffffffffffffffffffffffffffff1916145b8061073357506107328261180f565b5b9050919050565b60606002805461074990613fd5565b80601f016020809104026020016040519081016040528092919081815260200182805461077590613fd5565b80156107c25780601f10610797576101008083540402835291602001916107c2565b820191906000526020600020905b8154815290600101906020018083116107a557829003601f168201915b50505050509050919050565b60005b60118054905081101561083f576000601182815481106107f4576107f3614006565b5b9060005260206000200160009054906101000a900473ffffffffffffffffffffffffffffffffffffffff16905061082a81610bab565b5050808061083790614064565b9150506107d1565b50565b600e60009054906101000a900460ff1681565b60156020528060005260406000206000915054906101000a900460ff1681565b6011818154811061088557600080fd5b906000526020600020016000915054906101000a900473ffffffffffffffffffffffffffffffffffffffff1681565b6108bc611879565b73ffffffffffffffffffffffffffffffffffffffff168573ffffffffffffffffffffffffffffffffffffffff1614806109025750610901856108fc611879565b611495565b5b610941576040517f08c379a00000000000000000000000000000000000000000000000000000000081526004016109389061411e565b60405180910390fd5b61094e8585858585611881565b5050505050565b60105481565b7f00000000000000000000000000000000000000000000000000000000000000006010544261098a919061413e565b11156109b557426010819055506001600f546109a69190614172565b600f819055506109b46107ce565b5b5050565b606081518351146109ff576040517f08c379a00000000000000000000000000000000000000000000000000000000081526004016109f69061423a565b60405180910390fd5b6000835167ffffffffffffffff811115610a1c57610a1b613722565b5b604051908082528060200260200182016040528015610a4a5781602001602082028036833780820191505090505b50905060005b8451811015610ac757610a97858281518110610a6f57610a6e614006565b5b6020026020010151858381518110610a8a57610a89614006565b5b6020026020010151610590565b828281518110610aaa57610aa9614006565b5b60200260200101818152505080610ac090614064565b9050610a50565b508091505092915050565b60126020528060005260406000206000915054906101000a900460ff1681565b600f5481565b600060607f000000000000000000000000000000000000000000000000000000000000000060105442610b2b919061413e565b1191509250929050565b610b513360018060405180602001604052806000815250611ba2565b6001601560003373ffffffffffffffffffffffffffffffffffffffff1673ffffffffffffffffffffffffffffffffffffffff16815260200190815260200160002060006101000a81548160ff021916908315150217905550565b600080610bc2600c543063fd68990a60e01b611d52565b90506000610bcf84611d83565b9050610c1b6040518060400160405280600381526020017f67657400000000000000000000000000000000000000000000000000000000008152508284611db49092919063ffffffff16565b610c9a6040518060400160405280600481526020017f70617468000000000000000000000000000000000000000000000000000000008152506040518060400160405280600781526020017f737563636573730000000000000000000000000000000000000000000000000081525084611db49092919063ffffffff16565b6000610ca883600d54611de7565b9050846013600083815260200190815260200160002060006101000a81548173ffffffffffffffffffffffffffffffffffffffff021916908373ffffffffffffffffffffffffffffffffffffffff160217905550809350505050919050565b600a60009054906101000a900473ffffffffffffffffffffffffffffffffffffffff1673ffffffffffffffffffffffffffffffffffffffff163373ffffffffffffffffffffffffffffffffffffffff1614610d97576040517f08c379a0000000000000000000000000000000000000000000000000000000008152600401610d8e906142a6565b60405180910390fd5b6000600960009054906101000a900473ffffffffffffffffffffffffffffffffffffffff16905033600960006101000a81548173ffffffffffffffffffffffffffffffffffffffff021916908373ffffffffffffffffffffffffffffffffffffffff1602179055506000600a60006101000a81548173ffffffffffffffffffffffffffffffffffffffff021916908373ffffffffffffffffffffffffffffffffffffffff1602179055503373ffffffffffffffffffffffffffffffffffffffff168173ffffffffffffffffffffffffffffffffffffffff167f8be0079c531659141344cd1fd0a4f28419497f9722a3daafe3b4186f6b6457e060405160405180910390a350565b6000600960009054906101000a900473ffffffffffffffffffffffffffffffffffffffff16905090565b610ed0611e1e565b6000610eda611eb0565b90508073ffffffffffffffffffffffffffffffffffffffff1663a9059cbb338373ffffffffffffffffffffffffffffffffffffffff166370a08231306040518263ffffffff1660e01b8152600401610f329190613702565b602060405180830381865afa158015610f4f573d6000803e3d6000fd5b505050506040513d601f19601f82011682018060405250810190610f7391906142db565b6040518363ffffffff1660e01b8152600401610f90929190614308565b6020604051808303816000875af1158015610faf573d6000803e3d6000fd5b505050506040513d601f19601f82011682018060405250810190610fd39190614346565b611012576040517f08c379a0000000000000000000000000000000000000000000000000000000008152600401611009906143bf565b60405180910390fd5b50565b7f000000000000000000000000000000000000000000000000000000000000000081565b61104b611044611879565b8383611eda565b5050565b6001601260003373ffffffffffffffffffffffffffffffffffffffff1673ffffffffffffffffffffffffffffffffffffffff16815260200190815260200160002060006101000a81548160ff0219169083151502179055506011339080600181540180825580915050600190039060005260206000200160009091909190916101000a81548173ffffffffffffffffffffffffffffffffffffffff021916908373ffffffffffffffffffffffffffffffffffffffff160217905550565b600b5481565b6014805461111f90613fd5565b80601f016020809104026020016040519081016040528092919081815260200182805461114b90613fd5565b80156111985780601f1061116d57610100808354040283529160200191611198565b820191906000526020600020905b81548152906001019060200180831161117b57829003601f168201915b505050505081565b606060008260001b905060006040518060400160405280601081526020017f303132333435363738396162636465660000000000000000000000000000000081525090506000602a67ffffffffffffffff81111561120157611200613722565b5b6040519080825280601f01601f1916602001820160405280156112335781602001600182028036833780820191505090505b5090507f30000000000000000000000000000000000000000000000000000000000000008160008151811061126b5761126a614006565b5b60200101907effffffffffffffffffffffffffffffffffffffffffffffffffffffffffffff1916908160001a9053507f7800000000000000000000000000000000000000000000000000000000000000816001815181106112cf576112ce614006565b5b60200101907effffffffffffffffffffffffffffffffffffffffffffffffffffffffffffff1916908160001a90535060005b60148110156114895782600485600c8461131b9190614172565b6020811061132c5761132b614006565b5b1a60f81b7effffffffffffffffffffffffffffffffffffffffffffffffffffffffffffff1916901c60f81c60ff168151811061136b5761136a614006565b5b602001015160f81c60f81b8260028361138491906143df565b60026113909190614172565b815181106113a1576113a0614006565b5b60200101907effffffffffffffffffffffffffffffffffffffffffffffffffffffffffffff1916908160001a90535082600f60f81b85600c846113e49190614172565b602081106113f5576113f4614006565b5b1a60f81b1660f81c60ff168151811061141157611410614006565b5b602001015160f81c60f81b8260028361142a91906143df565b60036114369190614172565b8151811061144757611446614006565b5b60200101907effffffffffffffffffffffffffffffffffffffffffffffffffffffffffffff1916908160001a905350808061148190614064565b915050611301565b50809350505050919050565b6000600160008473ffffffffffffffffffffffffffffffffffffffff1673ffffffffffffffffffffffffffffffffffffffff16815260200190815260200160002060008373ffffffffffffffffffffffffffffffffffffffff1673ffffffffffffffffffffffffffffffffffffffff16815260200190815260200160002060009054906101000a900460ff16905092915050565b611531611879565b73ffffffffffffffffffffffffffffffffffffffff168573ffffffffffffffffffffffffffffffffffffffff161480611577575061157685611571611879565b611495565b5b6115b6576040517f08c379a00000000000000000000000000000000000000000000000000000000081526004016115ad9061411e565b60405180910390fd5b6115c38585858585612046565b5050505050565b6115d2611e1e565b6115db816122e1565b50565b816008600082815260200190815260200160002060009054906101000a900473ffffffffffffffffffffffffffffffffffffffff1673ffffffffffffffffffffffffffffffffffffffff163373ffffffffffffffffffffffffffffffffffffffff1614611680576040517f08c379a0000000000000000000000000000000000000000000000000000000008152600401611677906144ab565b60405180910390fd5b6008600082815260200190815260200160002060006101000a81549073ffffffffffffffffffffffffffffffffffffffff0219169055807f7cc135e0cebb02c3480ae5d74d377283180a2601f8f644edf7987b009316c63a60405160405180910390a260006013600085815260200190815260200160002060009054906101000a900473ffffffffffffffffffffffffffffffffffffffff1690506001925082156117ce5761172e8161240f565b60005b6011805490508110156117cc576011818154811061175257611751614006565b5b9060005260206000200160009054906101000a900473ffffffffffffffffffffffffffffffffffffffff1673ffffffffffffffffffffffffffffffffffffffff168273ffffffffffffffffffffffffffffffffffffffff16036117b9576117b881612486565b5b80806117c490614064565b915050611731565b505b837f2a59adc454390ac082968c8c50e27a9901b5266815783beaea3e73e7cf992d4f846014604051611801929190614560565b60405180910390a250505050565b60007f01ffc9a7000000000000000000000000000000000000000000000000000000007bffffffffffffffffffffffffffffffffffffffffffffffffffffffff1916827bffffffffffffffffffffffffffffffffffffffffffffffffffffffff1916149050919050565b600033905090565b81518351146118c5576040517f08c379a00000000000000000000000000000000000000000000000000000000081526004016118bc90614602565b60405180910390fd5b600073ffffffffffffffffffffffffffffffffffffffff168473ffffffffffffffffffffffffffffffffffffffff1603611934576040517f08c379a000000000000000000000000000000000000000000000000000000000815260040161192b90614694565b60405180910390fd5b600061193e611879565b905061194e81878787878761258a565b60005b8451811015611aff57600085828151811061196f5761196e614006565b5b60200260200101519050600085838151811061198e5761198d614006565b5b60200260200101519050600080600084815260200190815260200160002060008b73ffffffffffffffffffffffffffffffffffffffff1673ffffffffffffffffffffffffffffffffffffffff16815260200190815260200160002054905081811015611a2f576040517f08c379a0000000000000000000000000000000000000000000000000000000008152600401611a2690614726565b60405180910390fd5b81810360008085815260200190815260200160002060008c73ffffffffffffffffffffffffffffffffffffffff1673ffffffffffffffffffffffffffffffffffffffff168152602001908152602001600020819055508160008085815260200190815260200160002060008b73ffffffffffffffffffffffffffffffffffffffff1673ffffffffffffffffffffffffffffffffffffffff1681526020019081526020016000206000828254611ae49190614172565b9250508190555050505080611af890614064565b9050611951565b508473ffffffffffffffffffffffffffffffffffffffff168673ffffffffffffffffffffffffffffffffffffffff168273ffffffffffffffffffffffffffffffffffffffff167f4a39dc06d4c0dbc64b70af90fd698a233a518aa5d07e595d983b8c0526c8f7fb8787604051611b76929190614746565b60405180910390a4611b8c818787878787612592565b611b9a81878787878761259a565b505050505050565b600073ffffffffffffffffffffffffffffffffffffffff168473ffffffffffffffffffffffffffffffffffffffff1603611c11576040517f08c379a0000000000000000000000000000000000000000000000000000000008152600401611c08906147ef565b60405180910390fd5b6000611c1b611879565b90506000611c2885612771565b90506000611c3585612771565b9050611c468360008985858961258a565b8460008088815260200190815260200160002060008973ffffffffffffffffffffffffffffffffffffffff1673ffffffffffffffffffffffffffffffffffffffff1681526020019081526020016000206000828254611ca59190614172565b925050819055508673ffffffffffffffffffffffffffffffffffffffff16600073ffffffffffffffffffffffffffffffffffffffff168473ffffffffffffffffffffffffffffffffffffffff167fc3d58168c5ae7397731d063d5bbf3d657854427343f4c083240f7aacaa2d0f628989604051611d2392919061480f565b60405180910390a4611d3a83600089858589612592565b611d49836000898989896127eb565b50505050505050565b611d5a61338a565b611d6261338a565b611d79858585846129c2909392919063ffffffff16565b9150509392505050565b6060611d8e82612a72565b604051602001611d9e91906148e6565b6040516020818303038152906040529050919050565b611dcb828460800151612c3590919063ffffffff16565b611de2818460800151612c3590919063ffffffff16565b505050565b6000611e16600660009054906101000a900473ffffffffffffffffffffffffffffffffffffffff168484612c5a565b905092915050565b600960009054906101000a900473ffffffffffffffffffffffffffffffffffffffff1673ffffffffffffffffffffffffffffffffffffffff163373ffffffffffffffffffffffffffffffffffffffff1614611eae576040517f08c379a0000000000000000000000000000000000000000000000000000000008152600401611ea590614954565b60405180910390fd5b565b6000600560009054906101000a900473ffffffffffffffffffffffffffffffffffffffff16905090565b8173ffffffffffffffffffffffffffffffffffffffff168373ffffffffffffffffffffffffffffffffffffffff1603611f48576040517f08c379a0000000000000000000000000000000000000000000000000000000008152600401611f3f906149e6565b60405180910390fd5b80600160008573ffffffffffffffffffffffffffffffffffffffff1673ffffffffffffffffffffffffffffffffffffffff16815260200190815260200160002060008473ffffffffffffffffffffffffffffffffffffffff1673ffffffffffffffffffffffffffffffffffffffff16815260200190815260200160002060006101000a81548160ff0219169083151502179055508173ffffffffffffffffffffffffffffffffffffffff168373ffffffffffffffffffffffffffffffffffffffff167f17307eab39ab6107e8899845ad3d59bd9653f200f220920489ca2b5937696c318360405161203991906135c3565b60405180910390a3505050565b600073ffffffffffffffffffffffffffffffffffffffff168473ffffffffffffffffffffffffffffffffffffffff16036120b5576040517f08c379a00000000000000000000000000000000000000000000000000000000081526004016120ac90614694565b60405180910390fd5b60006120bf611879565b905060006120cc85612771565b905060006120d985612771565b90506120e983898985858961258a565b600080600088815260200190815260200160002060008a73ffffffffffffffffffffffffffffffffffffffff1673ffffffffffffffffffffffffffffffffffffffff16815260200190815260200160002054905085811015612180576040517f08c379a000000000000000000000000000000000000000000000000000000000815260040161217790614726565b60405180910390fd5b85810360008089815260200190815260200160002060008b73ffffffffffffffffffffffffffffffffffffffff1673ffffffffffffffffffffffffffffffffffffffff168152602001908152602001600020819055508560008089815260200190815260200160002060008a73ffffffffffffffffffffffffffffffffffffffff1673ffffffffffffffffffffffffffffffffffffffff16815260200190815260200160002060008282546122359190614172565b925050819055508773ffffffffffffffffffffffffffffffffffffffff168973ffffffffffffffffffffffffffffffffffffffff168573ffffffffffffffffffffffffffffffffffffffff167fc3d58168c5ae7397731d063d5bbf3d657854427343f4c083240f7aacaa2d0f628a8a6040516122b292919061480f565b60405180910390a46122c8848a8a86868a612592565b6122d6848a8a8a8a8a6127eb565b505050505050505050565b3373ffffffffffffffffffffffffffffffffffffffff168173ffffffffffffffffffffffffffffffffffffffff160361234f576040517f08c379a000000000000000000000000000000000000000000000000000000000815260040161234690614a52565b60405180910390fd5b80600a60006101000a81548173ffffffffffffffffffffffffffffffffffffffff021916908373ffffffffffffffffffffffffffffffffffffffff1602179055508073ffffffffffffffffffffffffffffffffffffffff16600960009054906101000a900473ffffffffffffffffffffffffffffffffffffffff1673ffffffffffffffffffffffffffffffffffffffff167fed8889f560326eb138920d842192f0eb3dd22b4f139c87a2c57538e05bae127860405160405180910390a350565b61242b8160018060405180602001604052806000815250611ba2565b6001601560008373ffffffffffffffffffffffffffffffffffffffff1673ffffffffffffffffffffffffffffffffffffffff16815260200190815260200160002060006101000a81548160ff02191690831515021790555050565b60118054905081101561258757601160016011805490506124a7919061413e565b815481106124b8576124b7614006565b5b9060005260206000200160009054906101000a900473ffffffffffffffffffffffffffffffffffffffff16601182815481106124f7576124f6614006565b5b9060005260206000200160006101000a81548173ffffffffffffffffffffffffffffffffffffffff021916908373ffffffffffffffffffffffffffffffffffffffff160217905550601180548061255157612550614a72565b5b6001900381819060005260206000200160006101000a81549073ffffffffffffffffffffffffffffffffffffffff021916905590555b50565b505050505050565b505050505050565b6125b98473ffffffffffffffffffffffffffffffffffffffff16612d26565b15612769578373ffffffffffffffffffffffffffffffffffffffff1663bc197c8187878686866040518663ffffffff1660e01b81526004016125ff959493929190614aa1565b6020604051808303816000875af192505050801561263b57506040513d601f19601f820116820180604052508101906126389190614b1e565b60015b6126e057612647614b58565b806308c379a0036126a3575061265b614b7a565b8061266657506126a5565b806040517f08c379a000000000000000000000000000000000000000000000000000000000815260040161269a91906136a4565b60405180910390fd5b505b6040517f08c379a00000000000000000000000000000000000000000000000000000000081526004016126d790614c7c565b60405180910390fd5b63bc197c8160e01b7bffffffffffffffffffffffffffffffffffffffffffffffffffffffff1916817bffffffffffffffffffffffffffffffffffffffffffffffffffffffff191614612767576040517f08c379a000000000000000000000000000000000000000000000000000000000815260040161275e90614d0e565b60405180910390fd5b505b505050505050565b60606000600167ffffffffffffffff8111156127905761278f613722565b5b6040519080825280602002602001820160405280156127be5781602001602082028036833780820191505090505b50905082816000815181106127d6576127d5614006565b5b60200260200101818152505080915050919050565b61280a8473ffffffffffffffffffffffffffffffffffffffff16612d26565b156129ba578373ffffffffffffffffffffffffffffffffffffffff1663f23a6e6187878686866040518663ffffffff1660e01b8152600401612850959493929190614d2e565b6020604051808303816000875af192505050801561288c57506040513d601f19601f820116820180604052508101906128899190614b1e565b60015b61293157612898614b58565b806308c379a0036128f457506128ac614b7a565b806128b757506128f6565b806040517f08c379a00000000000000000000000000000000000000000000000000000000081526004016128eb91906136a4565b60405180910390fd5b505b6040517f08c379a000000000000000000000000000000000000000000000000000000000815260040161292890614c7c565b60405180910390fd5b63f23a6e6160e01b7bffffffffffffffffffffffffffffffffffffffffffffffffffffffff1916817bffffffffffffffffffffffffffffffffffffffffffffffffffffffff1916146129b8576040517f08c379a00000000000000000000000000000000000000000000000000000000081526004016129af90614d0e565b60405180910390fd5b505b505050505050565b6129ca61338a565b6129da8560800151610100612d49565b508385600001818152505082856020019073ffffffffffffffffffffffffffffffffffffffff16908173ffffffffffffffffffffffffffffffffffffffff16815250508185604001907bffffffffffffffffffffffffffffffffffffffffffffffffffffffff191690817bffffffffffffffffffffffffffffffffffffffffffffffffffffffff191681525050849050949350505050565b60606000602867ffffffffffffffff811115612a9157612a90613722565b5b6040519080825280601f01601f191660200182016040528015612ac35781602001600182028036833780820191505090505b50905060005b6014811015612c2b576000816013612ae1919061413e565b6008612aed91906143df565b6002612af99190614ebb565b8573ffffffffffffffffffffffffffffffffffffffff16612b1a9190614f35565b60f81b9050600060108260f81c612b319190614f73565b60f81b905060008160f81c6010612b489190614fa4565b8360f81c612b569190614fdf565b60f81b9050612b6482612db3565b85856002612b7291906143df565b81518110612b8357612b82614006565b5b60200101907effffffffffffffffffffffffffffffffffffffffffffffffffffffffffffff1916908160001a905350612bbb81612db3565b856001866002612bcb91906143df565b612bd59190614172565b81518110612be657612be5614006565b5b60200101907effffffffffffffffffffffffffffffffffffffffffffffffffffffffffffff1916908160001a9053505050508080612c2390614064565b915050612ac9565b5080915050919050565b612c428260038351612df9565b612c558183612f7e90919063ffffffff16565b505050565b6000806007549050600181612c6f9190614172565b6007819055506000634042994660e01b60008087600001513089604001518760018c6080015160000151604051602401612cb0989796959493929190615022565b604051602081830303815290604052907bffffffffffffffffffffffffffffffffffffffffffffffffffffffff19166020820180517bffffffffffffffffffffffffffffffffffffffffffffffffffffffff83818316178352505050509050612d1b86838684612fa0565b925050509392505050565b6000808273ffffffffffffffffffffffffffffffffffffffff163b119050919050565b612d516133f7565b6000602083612d6091906150a7565b14612d8c57602082612d7291906150a7565b6020612d7e919061413e565b82612d899190614172565b91505b81836020018181525050604051808452600081528281016020016040525082905092915050565b6000600a8260f81c60ff161015612dde5760308260f81c612dd491906150d8565b60f81b9050612df4565b60578260f81c612dee91906150d8565b60f81b90505b919050565b60178167ffffffffffffffff1611612e3057612e2a8160058460ff16901b60ff16178461313590919063ffffffff16565b50612f79565b60ff8167ffffffffffffffff1611612e8657612e5f601860058460ff16901b178461313590919063ffffffff16565b50612e808167ffffffffffffffff166001856131559092919063ffffffff16565b50612f78565b61ffff8167ffffffffffffffff1611612edd57612eb6601960058460ff16901b178461313590919063ffffffff16565b50612ed78167ffffffffffffffff166002856131559092919063ffffffff16565b50612f77565b63ffffffff8167ffffffffffffffff1611612f3657612f0f601a60058460ff16901b178461313590919063ffffffff16565b50612f308167ffffffffffffffff166004856131559092919063ffffffff16565b50612f76565b612f53601b60058460ff16901b178461313590919063ffffffff16565b50612f748167ffffffffffffffff166008856131559092919063ffffffff16565b505b5b5b5b505050565b612f866133f7565b612f9883846000015151848551613177565b905092915050565b60003084604051602001612fb59291906151c8565b604051602081830303815290604052805190602001209050846008600083815260200190815260200160002060006101000a81548173ffffffffffffffffffffffffffffffffffffffff021916908373ffffffffffffffffffffffffffffffffffffffff160217905550807fb5e6e01e79f91267dc17b4e6314d5d4d03593d2ceee0fbb452b750bd70ea5af960405160405180910390a2600560009054906101000a900473ffffffffffffffffffffffffffffffffffffffff1673ffffffffffffffffffffffffffffffffffffffff16634000aea08685856040518463ffffffff1660e01b81526004016130ab939291906151f4565b6020604051808303816000875af11580156130ca573d6000803e3d6000fd5b505050506040513d601f19601f820116820180604052508101906130ee9190614346565b61312d576040517f08c379a0000000000000000000000000000000000000000000000000000000008152600401613124906152a4565b60405180910390fd5b949350505050565b61313d6133f7565b61314d8384600001515184613266565b905092915050565b61315d6133f7565b61316e8485600001515185856132bc565b90509392505050565b61317f6133f7565b825182111561318d57600080fd5b8460200151828561319e9190614172565b11156131d3576131d28560026131c3886020015188876131be9190614172565b61334a565b6131cd91906143df565b613366565b5b6000808651805187602083010193508088870111156131f25787860182525b60208701925050505b6020841061323957805182526020826132149190614172565b91506020816132239190614172565b9050602084613232919061413e565b93506131fb565b60006001856020036101000a03905080198251168184511681811785525050508692505050949350505050565b61326e6133f7565b8360200151831061329457613293846002866020015161328e91906143df565b613366565b5b835180516020858301018481538186036132af576001820183525b5050508390509392505050565b6132c46133f7565b846020015184836132d59190614172565b11156132fd576132fc85600286856132ed9190614172565b6132f791906143df565b613366565b5b600060018361010061330f9190614ebb565b613319919061413e565b9050855183868201018583198251161781528151858801111561333c5784870182525b505085915050949350505050565b60008183111561335c57829050613360565b8190505b92915050565b6000826000015190506133798383612d49565b506133848382612f7e565b50505050565b6040518060a0016040528060008019168152602001600073ffffffffffffffffffffffffffffffffffffffff16815260200160007bffffffffffffffffffffffffffffffffffffffffffffffffffffffff19168152602001600081526020016133f16133f7565b81525090565b604051806040016040528060608152602001600081525090565b6000604051905090565b600080fd5b600080fd5b600073ffffffffffffffffffffffffffffffffffffffff82169050919050565b600061345082613425565b9050919050565b61346081613445565b811461346b57600080fd5b50565b60008135905061347d81613457565b92915050565b6000819050919050565b61349681613483565b81146134a157600080fd5b50565b6000813590506134b38161348d565b92915050565b600080604083850312156134d0576134cf61341b565b5b60006134de8582860161346e565b92505060206134ef858286016134a4565b9150509250929050565b61350281613483565b82525050565b600060208201905061351d60008301846134f9565b92915050565b60007fffffffff0000000000000000000000000000000000000000000000000000000082169050919050565b61355881613523565b811461356357600080fd5b50565b6000813590506135758161354f565b92915050565b6000602082840312156135915761359061341b565b5b600061359f84828501613566565b91505092915050565b60008115159050919050565b6135bd816135a8565b82525050565b60006020820190506135d860008301846135b4565b92915050565b6000602082840312156135f4576135f361341b565b5b6000613602848285016134a4565b91505092915050565b600081519050919050565b600082825260208201905092915050565b60005b8381101561364557808201518184015260208101905061362a565b83811115613654576000848401525b50505050565b6000601f19601f8301169050919050565b60006136768261360b565b6136808185613616565b9350613690818560208601613627565b6136998161365a565b840191505092915050565b600060208201905081810360008301526136be818461366b565b905092915050565b6000602082840312156136dc576136db61341b565b5b60006136ea8482850161346e565b91505092915050565b6136fc81613445565b82525050565b600060208201905061371760008301846136f3565b92915050565b600080fd5b7f4e487b7100000000000000000000000000000000000000000000000000000000600052604160045260246000fd5b61375a8261365a565b810181811067ffffffffffffffff8211171561377957613778613722565b5b80604052505050565b600061378c613411565b90506137988282613751565b919050565b600067ffffffffffffffff8211156137b8576137b7613722565b5b602082029050602081019050919050565b600080fd5b60006137e16137dc8461379d565b613782565b90508083825260208201905060208402830185811115613804576138036137c9565b5b835b8181101561382d578061381988826134a4565b845260208401935050602081019050613806565b5050509392505050565b600082601f83011261384c5761384b61371d565b5b813561385c8482602086016137ce565b91505092915050565b600080fd5b600067ffffffffffffffff82111561388557613884613722565b5b61388e8261365a565b9050602081019050919050565b82818337600083830152505050565b60006138bd6138b88461386a565b613782565b9050828152602081018484840111156138d9576138d8613865565b5b6138e484828561389b565b509392505050565b600082601f8301126139015761390061371d565b5b81356139118482602086016138aa565b91505092915050565b600080600080600060a086880312156139365761393561341b565b5b60006139448882890161346e565b95505060206139558882890161346e565b945050604086013567ffffffffffffffff81111561397657613975613420565b5b61398288828901613837565b935050606086013567ffffffffffffffff8111156139a3576139a2613420565b5b6139af88828901613837565b925050608086013567ffffffffffffffff8111156139d0576139cf613420565b5b6139dc888289016138ec565b9150509295509295909350565b600080fd5b60008083601f840112613a0457613a0361371d565b5b8235905067ffffffffffffffff811115613a2157613a206139e9565b5b602083019150836001820283011115613a3d57613a3c6137c9565b5b9250929050565b60008060208385031215613a5b57613a5a61341b565b5b600083013567ffffffffffffffff811115613a7957613a78613420565b5b613a85858286016139ee565b92509250509250929050565b600067ffffffffffffffff821115613aac57613aab613722565b5b602082029050602081019050919050565b6000613ad0613acb84613a91565b613782565b90508083825260208201905060208402830185811115613af357613af26137c9565b5b835b81811015613b1c5780613b08888261346e565b845260208401935050602081019050613af5565b5050509392505050565b600082601f830112613b3b57613b3a61371d565b5b8135613b4b848260208601613abd565b91505092915050565b60008060408385031215613b6b57613b6a61341b565b5b600083013567ffffffffffffffff811115613b8957613b88613420565b5b613b9585828601613b26565b925050602083013567ffffffffffffffff811115613bb657613bb5613420565b5b613bc285828601613837565b9150509250929050565b600081519050919050565b600082825260208201905092915050565b6000819050602082019050919050565b613c0181613483565b82525050565b6000613c138383613bf8565b60208301905092915050565b6000602082019050919050565b6000613c3782613bcc565b613c418185613bd7565b9350613c4c83613be8565b8060005b83811015613c7d578151613c648882613c07565b9750613c6f83613c1f565b925050600181019050613c50565b5085935050505092915050565b60006020820190508181036000830152613ca48184613c2c565b905092915050565b600081519050919050565b600082825260208201905092915050565b6000613cd382613cac565b613cdd8185613cb7565b9350613ced818560208601613627565b613cf68161365a565b840191505092915050565b6000604082019050613d1660008301856135b4565b8181036020830152613d288184613cc8565b90509392505050565b6000819050919050565b613d4481613d31565b82525050565b6000602082019050613d5f6000830184613d3b565b92915050565b613d6e816135a8565b8114613d7957600080fd5b50565b600081359050613d8b81613d65565b92915050565b60008060408385031215613da857613da761341b565b5b6000613db68582860161346e565b9250506020613dc785828601613d7c565b9150509250929050565b60008060408385031215613de857613de761341b565b5b6000613df68582860161346e565b9250506020613e078582860161346e565b9150509250929050565b600080600080600060a08688031215613e2d57613e2c61341b565b5b6000613e3b8882890161346e565b9550506020613e4c8882890161346e565b9450506040613e5d888289016134a4565b9350506060613e6e888289016134a4565b925050608086013567ffffffffffffffff811115613e8f57613e8e613420565b5b613e9b888289016138ec565b9150509295509295909350565b613eb181613d31565b8114613ebc57600080fd5b50565b600081359050613ece81613ea8565b92915050565b60008060408385031215613eeb57613eea61341b565b5b6000613ef985828601613ebf565b9250506020613f0a85828601613d7c565b9150509250929050565b7f455243313135353a2061646472657373207a65726f206973206e6f742061207660008201527f616c6964206f776e657200000000000000000000000000000000000000000000602082015250565b6000613f70602a83613616565b9150613f7b82613f14565b604082019050919050565b60006020820190508181036000830152613f9f81613f63565b9050919050565b7f4e487b7100000000000000000000000000000000000000000000000000000000600052602260045260246000fd5b60006002820490506001821680613fed57607f821691505b60208210810361400057613fff613fa6565b5b50919050565b7f4e487b7100000000000000000000000000000000000000000000000000000000600052603260045260246000fd5b7f4e487b7100000000000000000000000000000000000000000000000000000000600052601160045260246000fd5b600061406f82613483565b91507fffffffffffffffffffffffffffffffffffffffffffffffffffffffffffffffff82036140a1576140a0614035565b5b600182019050919050565b7f455243313135353a2063616c6c6572206973206e6f7420746f6b656e206f776e60008201527f6572206e6f7220617070726f7665640000000000000000000000000000000000602082015250565b6000614108602f83613616565b9150614113826140ac565b604082019050919050565b60006020820190508181036000830152614137816140fb565b9050919050565b600061414982613483565b915061415483613483565b92508282101561416757614166614035565b5b828203905092915050565b600061417d82613483565b915061418883613483565b9250827fffffffffffffffffffffffffffffffffffffffffffffffffffffffffffffffff038211156141bd576141bc614035565b5b828201905092915050565b7f455243313135353a206163636f756e747320616e6420696473206c656e67746860008201527f206d69736d617463680000000000000000000000000000000000000000000000602082015250565b6000614224602983613616565b915061422f826141c8565b604082019050919050565b6000602082019050818103600083015261425381614217565b9050919050565b7f4d7573742062652070726f706f736564206f776e657200000000000000000000600082015250565b6000614290601683613616565b915061429b8261425a565b602082019050919050565b600060208201905081810360008301526142bf81614283565b9050919050565b6000815190506142d58161348d565b92915050565b6000602082840312156142f1576142f061341b565b5b60006142ff848285016142c6565b91505092915050565b600060408201905061431d60008301856136f3565b61432a60208301846134f9565b9392505050565b60008151905061434081613d65565b92915050565b60006020828403121561435c5761435b61341b565b5b600061436a84828501614331565b91505092915050565b7f556e61626c6520746f207472616e736665720000000000000000000000000000600082015250565b60006143a9601283613616565b91506143b482614373565b602082019050919050565b600060208201905081810360008301526143d88161439c565b9050919050565b60006143ea82613483565b91506143f583613483565b9250817fffffffffffffffffffffffffffffffffffffffffffffffffffffffffffffffff048311821515161561442e5761442d614035565b5b828202905092915050565b7f536f75726365206d75737420626520746865206f7261636c65206f662074686560008201527f2072657175657374000000000000000000000000000000000000000000000000602082015250565b6000614495602883613616565b91506144a082614439565b604082019050919050565b600060208201905081810360008301526144c481614488565b9050919050565b60008190508160005260206000209050919050565b600081546144ed81613fd5565b6144f78186613616565b94506001821660008114614512576001811461452457614557565b60ff1983168652602086019350614557565b61452d856144cb565b60005b8381101561454f57815481890152600182019150602081019050614530565b808801955050505b50505092915050565b600060408201905061457560008301856135b4565b818103602083015261458781846144e0565b90509392505050565b7f455243313135353a2069647320616e6420616d6f756e7473206c656e6774682060008201527f6d69736d61746368000000000000000000000000000000000000000000000000602082015250565b60006145ec602883613616565b91506145f782614590565b604082019050919050565b6000602082019050818103600083015261461b816145df565b9050919050565b7f455243313135353a207472616e7366657220746f20746865207a65726f20616460008201527f6472657373000000000000000000000000000000000000000000000000000000602082015250565b600061467e602583613616565b915061468982614622565b604082019050919050565b600060208201905081810360008301526146ad81614671565b9050919050565b7f455243313135353a20696e73756666696369656e742062616c616e636520666f60008201527f72207472616e7366657200000000000000000000000000000000000000000000602082015250565b6000614710602a83613616565b915061471b826146b4565b604082019050919050565b6000602082019050818103600083015261473f81614703565b9050919050565b600060408201905081810360008301526147608185613c2c565b905081810360208301526147748184613c2c565b90509392505050565b7f455243313135353a206d696e7420746f20746865207a65726f2061646472657360008201527f7300000000000000000000000000000000000000000000000000000000000000602082015250565b60006147d9602183613616565b91506147e48261477d565b604082019050919050565b60006020820190508181036000830152614808816147cc565b9050919050565b600060408201905061482460008301856134f9565b61483160208301846134f9565b9392505050565b600081905092915050565b7f68747470733a2f2f6c617a796d696e742d636861696e6c696e6b2e766572636560008201527f6c2e6170702f6170692f706f61703f616464726573733d000000000000000000602082015250565b600061489f603783614838565b91506148aa82614843565b603782019050919050565b60006148c08261360b565b6148ca8185614838565b93506148da818560208601613627565b80840191505092915050565b60006148f182614892565b91506148fd82846148b5565b915081905092915050565b7f4f6e6c792063616c6c61626c65206279206f776e657200000000000000000000600082015250565b600061493e601683613616565b915061494982614908565b602082019050919050565b6000602082019050818103600083015261496d81614931565b9050919050565b7f455243313135353a2073657474696e6720617070726f76616c2073746174757360008201527f20666f722073656c660000000000000000000000000000000000000000000000602082015250565b60006149d0602983613616565b91506149db82614974565b604082019050919050565b600060208201905081810360008301526149ff816149c3565b9050919050565b7f43616e6e6f74207472616e7366657220746f2073656c66000000000000000000600082015250565b6000614a3c601783613616565b9150614a4782614a06565b602082019050919050565b60006020820190508181036000830152614a6b81614a2f565b9050919050565b7f4e487b7100000000000000000000000000000000000000000000000000000000600052603160045260246000fd5b600060a082019050614ab660008301886136f3565b614ac360208301876136f3565b8181036040830152614ad58186613c2c565b90508181036060830152614ae98185613c2c565b90508181036080830152614afd8184613cc8565b90509695505050505050565b600081519050614b188161354f565b92915050565b600060208284031215614b3457614b3361341b565b5b6000614b4284828501614b09565b91505092915050565b60008160e01c9050919050565b600060033d1115614b775760046000803e614b74600051614b4b565b90505b90565b600060443d10614c0757614b8c613411565b60043d036004823e80513d602482011167ffffffffffffffff82111715614bb4575050614c07565b808201805167ffffffffffffffff811115614bd25750505050614c07565b80602083010160043d038501811115614bef575050505050614c07565b614bfe82602001850186613751565b82955050505050505b90565b7f455243313135353a207472616e7366657220746f206e6f6e204552433131353560008201527f526563656976657220696d706c656d656e746572000000000000000000000000602082015250565b6000614c66603483613616565b9150614c7182614c0a565b604082019050919050565b60006020820190508181036000830152614c9581614c59565b9050919050565b7f455243313135353a204552433131353552656365697665722072656a6563746560008201527f6420746f6b656e73000000000000000000000000000000000000000000000000602082015250565b6000614cf8602883613616565b9150614d0382614c9c565b604082019050919050565b60006020820190508181036000830152614d2781614ceb565b9050919050565b600060a082019050614d4360008301886136f3565b614d5060208301876136f3565b614d5d60408301866134f9565b614d6a60608301856134f9565b8181036080830152614d7c8184613cc8565b90509695505050505050565b60008160011c9050919050565b6000808291508390505b6001851115614ddf57808604811115614dbb57614dba614035565b5b6001851615614dca5780820291505b8081029050614dd885614d88565b9450614d9f565b94509492505050565b600082614df85760019050614eb4565b81614e065760009050614eb4565b8160018114614e1c5760028114614e2657614e55565b6001915050614eb4565b60ff841115614e3857614e37614035565b5b8360020a915084821115614e4f57614e4e614035565b5b50614eb4565b5060208310610133831016604e8410600b8410161715614e8a5782820a905083811115614e8557614e84614035565b5b614eb4565b614e978484846001614d95565b92509050818404811115614eae57614ead614035565b5b81810290505b9392505050565b6000614ec682613483565b9150614ed183613483565b9250614efe7fffffffffffffffffffffffffffffffffffffffffffffffffffffffffffffffff8484614de8565b905092915050565b7f4e487b7100000000000000000000000000000000000000000000000000000000600052601260045260246000fd5b6000614f4082613483565b9150614f4b83613483565b925082614f5b57614f5a614f06565b5b828204905092915050565b600060ff82169050919050565b6000614f7e82614f66565b9150614f8983614f66565b925082614f9957614f98614f06565b5b828204905092915050565b6000614faf82614f66565b9150614fba83614f66565b92508160ff0483118215151615614fd457614fd3614035565b5b828202905092915050565b6000614fea82614f66565b9150614ff583614f66565b92508282101561500857615007614035565b5b828203905092915050565b61501c81613523565b82525050565b600061010082019050615038600083018b6136f3565b615045602083018a6134f9565b6150526040830189613d3b565b61505f60608301886136f3565b61506c6080830187615013565b61507960a08301866134f9565b61508660c08301856134f9565b81810360e08301526150988184613cc8565b90509998505050505050505050565b60006150b282613483565b91506150bd83613483565b9250826150cd576150cc614f06565b5b828206905092915050565b60006150e382614f66565b91506150ee83614f66565b92508260ff0382111561510457615103614035565b5b828201905092915050565b6000819050919050565b600061513461512f61512a84613425565b61510f565b613425565b9050919050565b600061514682615119565b9050919050565b60006151588261513b565b9050919050565b60008160601b9050919050565b60006151778261515f565b9050919050565b60006151898261516c565b9050919050565b6151a161519c8261514d565b61517e565b82525050565b6000819050919050565b6151c26151bd82613483565b6151a7565b82525050565b60006151d48285615190565b6014820191506151e482846151b1565b6020820191508190509392505050565b600060608201905061520960008301866136f3565b61521660208301856134f9565b81810360408301526152288184613cc8565b9050949350505050565b7f756e61626c6520746f207472616e73666572416e6443616c6c20746f206f726160008201527f636c650000000000000000000000000000000000000000000000000000000000602082015250565b600061528e602383613616565b915061529982615232565b604082019050919050565b600060208201905081810360008301526152bd81615281565b905091905056fea26469706673582212205a50c5cc6e08617a62b8761e12a5ef19a5cfedc94c127bb15f8bf6e53eedd4ee64736f6c634300080e0033",
  "devdoc": {
    "kind": "dev",
    "methods": {
      "balanceOf(address,uint256)": {
        "details": "See {IERC1155-balanceOf}. Requirements: - `account` cannot be the zero address."
      },
      "balanceOfBatch(address[],uint256[])": {
        "details": "See {IERC1155-balanceOfBatch}. Requirements: - `accounts` and `ids` must have the same length."
      },
      "isApprovedForAll(address,address)": {
        "details": "See {IERC1155-isApprovedForAll}."
      },
      "safeBatchTransferFrom(address,address,uint256[],uint256[],bytes)": {
        "details": "See {IERC1155-safeBatchTransferFrom}."
      },
      "safeTransferFrom(address,address,uint256,uint256,bytes)": {
        "details": "See {IERC1155-safeTransferFrom}."
      },
      "setApprovalForAll(address,bool)": {
        "details": "See {IERC1155-setApprovalForAll}."
      },
      "supportsInterface(bytes4)": {
        "details": "See {IERC165-supportsInterface}."
      },
      "uri(uint256)": {
        "details": "See {IERC1155MetadataURI-uri}. This implementation returns the same URI for *all* token types. It relies on the token type ID substitution mechanism https://eips.ethereum.org/EIPS/eip-1155#metadata[defined in the EIP]. Clients calling this function must replace the `\\{id\\}` substring with the actual token type ID."
      }
    },
    "version": 1
  },
  "userdoc": {
    "kind": "user",
    "methods": {
      "acceptOwnership()": {
        "notice": "Allows an ownership transfer to be completed by the recipient."
      },
      "interval()": {
        "notice": "Use an interval in seconds and a timestamp to slow execution of Upkeep"
      },
      "owner()": {
        "notice": "Get the current owner"
      },
      "transferOwnership(address)": {
        "notice": "Allows an owner to begin transferring ownership to a new address, pending."
      },
      "withdrawLink()": {
        "notice": "Allow withdraw of Link tokens from the contract"
      }
    },
    "version": 1
  },
  "storageLayout": {
    "storage": [
      {
        "astId": 2570,
        "contract": "contracts/LazyNFT.sol:LazyNFT",
        "label": "_balances",
        "offset": 0,
        "slot": "0",
        "type": "t_mapping(t_uint256,t_mapping(t_address,t_uint256))"
      },
      {
        "astId": 2576,
        "contract": "contracts/LazyNFT.sol:LazyNFT",
        "label": "_operatorApprovals",
        "offset": 0,
        "slot": "1",
        "type": "t_mapping(t_address,t_mapping(t_address,t_bool))"
      },
      {
        "astId": 2578,
        "contract": "contracts/LazyNFT.sol:LazyNFT",
        "label": "_uri",
        "offset": 0,
        "slot": "2",
        "type": "t_string_storage"
      },
      {
        "astId": 358,
        "contract": "contracts/LazyNFT.sol:LazyNFT",
        "label": "s_ens",
        "offset": 0,
        "slot": "3",
        "type": "t_contract(ENSInterface)1214"
      },
      {
        "astId": 360,
        "contract": "contracts/LazyNFT.sol:LazyNFT",
        "label": "s_ensNode",
        "offset": 0,
        "slot": "4",
        "type": "t_bytes32"
      },
      {
        "astId": 363,
        "contract": "contracts/LazyNFT.sol:LazyNFT",
        "label": "s_link",
        "offset": 0,
        "slot": "5",
        "type": "t_contract(LinkTokenInterface)1309"
      },
      {
        "astId": 366,
        "contract": "contracts/LazyNFT.sol:LazyNFT",
        "label": "s_oracle",
        "offset": 0,
        "slot": "6",
        "type": "t_contract(OperatorInterface)1389"
      },
      {
        "astId": 369,
        "contract": "contracts/LazyNFT.sol:LazyNFT",
        "label": "s_requestCount",
        "offset": 0,
        "slot": "7",
        "type": "t_uint256"
      },
      {
        "astId": 373,
        "contract": "contracts/LazyNFT.sol:LazyNFT",
        "label": "s_pendingRequests",
        "offset": 0,
        "slot": "8",
        "type": "t_mapping(t_bytes32,t_address)"
      },
      {
        "astId": 928,
        "contract": "contracts/LazyNFT.sol:LazyNFT",
        "label": "s_owner",
        "offset": 0,
        "slot": "9",
        "type": "t_address"
      },
      {
        "astId": 930,
        "contract": "contracts/LazyNFT.sol:LazyNFT",
        "label": "s_pendingOwner",
        "offset": 0,
        "slot": "10",
        "type": "t_address"
      },
      {
        "astId": 4609,
        "contract": "contracts/LazyNFT.sol:LazyNFT",
        "label": "volume",
        "offset": 0,
        "slot": "11",
        "type": "t_uint256"
      },
      {
        "astId": 4611,
        "contract": "contracts/LazyNFT.sol:LazyNFT",
        "label": "jobId",
        "offset": 0,
        "slot": "12",
        "type": "t_bytes32"
      },
      {
        "astId": 4613,
        "contract": "contracts/LazyNFT.sol:LazyNFT",
        "label": "fee",
        "offset": 0,
        "slot": "13",
        "type": "t_uint256"
      },
      {
        "astId": 4615,
        "contract": "contracts/LazyNFT.sol:LazyNFT",
        "label": "approved",
        "offset": 0,
        "slot": "14",
        "type": "t_bool"
      },
      {
        "astId": 4625,
        "contract": "contracts/LazyNFT.sol:LazyNFT",
        "label": "counter",
        "offset": 0,
        "slot": "15",
        "type": "t_uint256"
      },
      {
        "astId": 4630,
        "contract": "contracts/LazyNFT.sol:LazyNFT",
        "label": "lastTimeStamp",
        "offset": 0,
        "slot": "16",
        "type": "t_uint256"
      },
      {
        "astId": 4633,
        "contract": "contracts/LazyNFT.sol:LazyNFT",
        "label": "addressesToVerify",
        "offset": 0,
        "slot": "17",
        "type": "t_array(t_address)dyn_storage"
      },
      {
        "astId": 4637,
        "contract": "contracts/LazyNFT.sol:LazyNFT",
        "label": "watchers",
        "offset": 0,
        "slot": "18",
        "type": "t_mapping(t_address,t_bool)"
      },
      {
        "astId": 4641,
        "contract": "contracts/LazyNFT.sol:LazyNFT",
        "label": "responseID",
        "offset": 0,
        "slot": "19",
        "type": "t_mapping(t_bytes32,t_address)"
      },
      {
        "astId": 4756,
        "contract": "contracts/LazyNFT.sol:LazyNFT",
        "label": "lastChecked",
        "offset": 0,
        "slot": "20",
        "type": "t_string_storage"
      },
      {
        "astId": 4537,
        "contract": "contracts/LazyNFT.sol:LazyNFT",
        "label": "minted",
        "offset": 0,
        "slot": "21",
        "type": "t_mapping(t_address,t_bool)"
      }
    ],
    "types": {
      "t_address": {
        "encoding": "inplace",
        "label": "address",
        "numberOfBytes": "20"
      },
      "t_array(t_address)dyn_storage": {
        "base": "t_address",
        "encoding": "dynamic_array",
        "label": "address[]",
        "numberOfBytes": "32"
      },
      "t_bool": {
        "encoding": "inplace",
        "label": "bool",
        "numberOfBytes": "1"
      },
      "t_bytes32": {
        "encoding": "inplace",
        "label": "bytes32",
        "numberOfBytes": "32"
      },
      "t_contract(ENSInterface)1214": {
        "encoding": "inplace",
        "label": "contract ENSInterface",
        "numberOfBytes": "20"
      },
      "t_contract(LinkTokenInterface)1309": {
        "encoding": "inplace",
        "label": "contract LinkTokenInterface",
        "numberOfBytes": "20"
      },
      "t_contract(OperatorInterface)1389": {
        "encoding": "inplace",
        "label": "contract OperatorInterface",
        "numberOfBytes": "20"
      },
      "t_mapping(t_address,t_bool)": {
        "encoding": "mapping",
        "key": "t_address",
        "label": "mapping(address => bool)",
        "numberOfBytes": "32",
        "value": "t_bool"
      },
      "t_mapping(t_address,t_mapping(t_address,t_bool))": {
        "encoding": "mapping",
        "key": "t_address",
        "label": "mapping(address => mapping(address => bool))",
        "numberOfBytes": "32",
        "value": "t_mapping(t_address,t_bool)"
      },
      "t_mapping(t_address,t_uint256)": {
        "encoding": "mapping",
        "key": "t_address",
        "label": "mapping(address => uint256)",
        "numberOfBytes": "32",
        "value": "t_uint256"
      },
      "t_mapping(t_bytes32,t_address)": {
        "encoding": "mapping",
        "key": "t_bytes32",
        "label": "mapping(bytes32 => address)",
        "numberOfBytes": "32",
        "value": "t_address"
      },
      "t_mapping(t_uint256,t_mapping(t_address,t_uint256))": {
        "encoding": "mapping",
        "key": "t_uint256",
        "label": "mapping(uint256 => mapping(address => uint256))",
        "numberOfBytes": "32",
        "value": "t_mapping(t_address,t_uint256)"
      },
      "t_string_storage": {
        "encoding": "bytes",
        "label": "string",
        "numberOfBytes": "32"
      },
      "t_uint256": {
        "encoding": "inplace",
        "label": "uint256",
        "numberOfBytes": "32"
      }
    }
  }
}