{
  "address": "0x5FbDB2315678afecb367f032d93F642f64180aa3",
  "abi": [
    {
      "inputs": [
        {
          "internalType": "string",
          "name": "uri_",
          "type": "string"
        },
        {
          "internalType": "uint256",
          "name": "updateInterval",
          "type": "uint256"
        }
      ],
      "stateMutability": "nonpayable",
      "type": "constructor"
    },
    {
      "anonymous": false,
      "inputs": [
        {
          "indexed": true,
          "internalType": "address",
          "name": "account",
          "type": "address"
        },
        {
          "indexed": true,
          "internalType": "address",
          "name": "operator",
          "type": "address"
        },
        {
          "indexed": false,
          "internalType": "bool",
          "name": "approved",
          "type": "bool"
        }
      ],
      "name": "ApprovalForAll",
      "type": "event"
    },
    {
      "anonymous": false,
      "inputs": [
        {
          "indexed": true,
          "internalType": "bytes32",
          "name": "id",
          "type": "bytes32"
        }
      ],
      "name": "ChainlinkCancelled",
      "type": "event"
    },
    {
      "anonymous": false,
      "inputs": [
        {
          "indexed": true,
          "internalType": "bytes32",
          "name": "id",
          "type": "bytes32"
        }
      ],
      "name": "ChainlinkFulfilled",
      "type": "event"
    },
    {
      "anonymous": false,
      "inputs": [
        {
          "indexed": true,
          "internalType": "bytes32",
          "name": "id",
          "type": "bytes32"
        }
      ],
      "name": "ChainlinkRequested",
      "type": "event"
    },
    {
      "anonymous": false,
      "inputs": [
        {
          "indexed": true,
          "internalType": "address",
          "name": "from",
          "type": "address"
        },
        {
          "indexed": true,
          "internalType": "address",
          "name": "to",
          "type": "address"
        }
      ],
      "name": "OwnershipTransferRequested",
      "type": "event"
    },
    {
      "anonymous": false,
      "inputs": [
        {
          "indexed": true,
          "internalType": "address",
          "name": "from",
          "type": "address"
        },
        {
          "indexed": true,
          "internalType": "address",
          "name": "to",
          "type": "address"
        }
      ],
      "name": "OwnershipTransferred",
      "type": "event"
    },
    {
      "anonymous": false,
      "inputs": [
        {
          "indexed": true,
          "internalType": "bytes32",
          "name": "requestId",
          "type": "bytes32"
        },
        {
          "indexed": false,
          "internalType": "bool",
          "name": "approved",
          "type": "bool"
        },
        {
          "indexed": false,
          "internalType": "string",
          "name": "lastChecked",
          "type": "string"
        }
      ],
      "name": "RequestVolume",
      "type": "event"
    },
    {
      "anonymous": false,
      "inputs": [
        {
          "indexed": true,
          "internalType": "address",
          "name": "operator",
          "type": "address"
        },
        {
          "indexed": true,
          "internalType": "address",
          "name": "from",
          "type": "address"
        },
        {
          "indexed": true,
          "internalType": "address",
          "name": "to",
          "type": "address"
        },
        {
          "indexed": false,
          "internalType": "uint256[]",
          "name": "ids",
          "type": "uint256[]"
        },
        {
          "indexed": false,
          "internalType": "uint256[]",
          "name": "values",
          "type": "uint256[]"
        }
      ],
      "name": "TransferBatch",
      "type": "event"
    },
    {
      "anonymous": false,
      "inputs": [
        {
          "indexed": true,
          "internalType": "address",
          "name": "operator",
          "type": "address"
        },
        {
          "indexed": true,
          "internalType": "address",
          "name": "from",
          "type": "address"
        },
        {
          "indexed": true,
          "internalType": "address",
          "name": "to",
          "type": "address"
        },
        {
          "indexed": false,
          "internalType": "uint256",
          "name": "id",
          "type": "uint256"
        },
        {
          "indexed": false,
          "internalType": "uint256",
          "name": "value",
          "type": "uint256"
        }
      ],
      "name": "TransferSingle",
      "type": "event"
    },
    {
      "anonymous": false,
      "inputs": [
        {
          "indexed": false,
          "internalType": "string",
          "name": "value",
          "type": "string"
        },
        {
          "indexed": true,
          "internalType": "uint256",
          "name": "id",
          "type": "uint256"
        }
      ],
      "name": "URI",
      "type": "event"
    },
    {
      "inputs": [],
      "name": "acceptOwnership",
      "outputs": [],
      "stateMutability": "nonpayable",
      "type": "function"
    },
    {
      "inputs": [],
      "name": "addWatcher",
      "outputs": [],
      "stateMutability": "nonpayable",
      "type": "function"
    },
    {
      "inputs": [
        {
          "internalType": "uint256",
          "name": "",
          "type": "uint256"
        }
      ],
      "name": "addressesToVerify",
      "outputs": [
        {
          "internalType": "address",
          "name": "",
          "type": "address"
        }
      ],
      "stateMutability": "view",
      "type": "function"
    },
    {
      "inputs": [],
      "name": "approved",
      "outputs": [
        {
          "internalType": "bool",
          "name": "",
          "type": "bool"
        }
      ],
      "stateMutability": "view",
      "type": "function"
    },
    {
      "inputs": [
        {
          "internalType": "address",
          "name": "account",
          "type": "address"
        },
        {
          "internalType": "uint256",
          "name": "id",
          "type": "uint256"
        }
      ],
      "name": "balanceOf",
      "outputs": [
        {
          "internalType": "uint256",
          "name": "",
          "type": "uint256"
        }
      ],
      "stateMutability": "view",
      "type": "function"
    },
    {
      "inputs": [
        {
          "internalType": "address[]",
          "name": "accounts",
          "type": "address[]"
        },
        {
          "internalType": "uint256[]",
          "name": "ids",
          "type": "uint256[]"
        }
      ],
      "name": "balanceOfBatch",
      "outputs": [
        {
          "internalType": "uint256[]",
          "name": "",
          "type": "uint256[]"
        }
      ],
      "stateMutability": "view",
      "type": "function"
    },
    {
      "inputs": [],
      "name": "batchVerify",
      "outputs": [],
      "stateMutability": "nonpayable",
      "type": "function"
    },
    {
      "inputs": [
        {
          "internalType": "address",
          "name": "_wallet",
          "type": "address"
        }
      ],
      "name": "buidl",
      "outputs": [],
      "stateMutability": "nonpayable",
      "type": "function"
    },
    {
      "inputs": [
        {
          "internalType": "bytes",
          "name": "",
          "type": "bytes"
        }
      ],
      "name": "checkUpkeep",
      "outputs": [
        {
          "internalType": "bool",
          "name": "upkeepNeeded",
          "type": "bool"
        },
        {
          "internalType": "bytes",
          "name": "",
          "type": "bytes"
        }
      ],
      "stateMutability": "view",
      "type": "function"
    },
    {
      "inputs": [],
      "name": "counter",
      "outputs": [
        {
          "internalType": "uint256",
          "name": "",
          "type": "uint256"
        }
      ],
      "stateMutability": "view",
      "type": "function"
    },
    {
      "inputs": [
        {
          "internalType": "bytes32",
          "name": "_requestId",
          "type": "bytes32"
        },
        {
          "internalType": "bool",
          "name": "_approved",
          "type": "bool"
        }
      ],
      "name": "fulfill",
      "outputs": [],
      "stateMutability": "nonpayable",
      "type": "function"
    },
    {
      "inputs": [],
      "name": "interval",
      "outputs": [
        {
          "internalType": "uint256",
          "name": "",
          "type": "uint256"
        }
      ],
      "stateMutability": "view",
      "type": "function"
    },
    {
      "inputs": [
        {
          "internalType": "address",
          "name": "account",
          "type": "address"
        },
        {
          "internalType": "address",
          "name": "operator",
          "type": "address"
        }
      ],
      "name": "isApprovedForAll",
      "outputs": [
        {
          "internalType": "bool",
          "name": "",
          "type": "bool"
        }
      ],
      "stateMutability": "view",
      "type": "function"
    },
    {
      "inputs": [],
      "name": "lastChecked",
      "outputs": [
        {
          "internalType": "string",
          "name": "",
          "type": "string"
        }
      ],
      "stateMutability": "view",
      "type": "function"
    },
    {
      "inputs": [],
      "name": "lastTimeStamp",
      "outputs": [
        {
          "internalType": "uint256",
          "name": "",
          "type": "uint256"
        }
      ],
      "stateMutability": "view",
      "type": "function"
    },
    {
      "inputs": [
        {
          "internalType": "address",
          "name": "",
          "type": "address"
        }
      ],
      "name": "minted",
      "outputs": [
        {
          "internalType": "bool",
          "name": "",
          "type": "bool"
        }
      ],
      "stateMutability": "view",
      "type": "function"
    },
    {
      "inputs": [],
      "name": "owner",
      "outputs": [
        {
          "internalType": "address",
          "name": "",
          "type": "address"
        }
      ],
      "stateMutability": "view",
      "type": "function"
    },
    {
      "inputs": [
        {
          "internalType": "bytes",
          "name": "",
          "type": "bytes"
        }
      ],
      "name": "performUpkeep",
      "outputs": [],
      "stateMutability": "nonpayable",
      "type": "function"
    },
    {
      "inputs": [
        {
          "internalType": "address",
          "name": "_wallet",
          "type": "address"
        }
      ],
      "name": "requestVolumeData",
      "outputs": [
        {
          "internalType": "bytes32",
          "name": "requestId",
          "type": "bytes32"
        }
      ],
      "stateMutability": "nonpayable",
      "type": "function"
    },
    {
      "inputs": [
        {
          "internalType": "address",
          "name": "from",
          "type": "address"
        },
        {
          "internalType": "address",
          "name": "to",
          "type": "address"
        },
        {
          "internalType": "uint256[]",
          "name": "ids",
          "type": "uint256[]"
        },
        {
          "internalType": "uint256[]",
          "name": "amounts",
          "type": "uint256[]"
        },
        {
          "internalType": "bytes",
          "name": "data",
          "type": "bytes"
        }
      ],
      "name": "safeBatchTransferFrom",
      "outputs": [],
      "stateMutability": "nonpayable",
      "type": "function"
    },
    {
      "inputs": [
        {
          "internalType": "address",
          "name": "from",
          "type": "address"
        },
        {
          "internalType": "address",
          "name": "to",
          "type": "address"
        },
        {
          "internalType": "uint256",
          "name": "id",
          "type": "uint256"
        },
        {
          "internalType": "uint256",
          "name": "amount",
          "type": "uint256"
        },
        {
          "internalType": "bytes",
          "name": "data",
          "type": "bytes"
        }
      ],
      "name": "safeTransferFrom",
      "outputs": [],
      "stateMutability": "nonpayable",
      "type": "function"
    },
    {
      "inputs": [
        {
          "internalType": "address",
          "name": "operator",
          "type": "address"
        },
        {
          "internalType": "bool",
          "name": "approved",
          "type": "bool"
        }
      ],
      "name": "setApprovalForAll",
      "outputs": [],
      "stateMutability": "nonpayable",
      "type": "function"
    },
    {
      "inputs": [
        {
          "internalType": "bytes4",
          "name": "interfaceId",
          "type": "bytes4"
        }
      ],
      "name": "supportsInterface",
      "outputs": [
        {
          "internalType": "bool",
          "name": "",
          "type": "bool"
        }
      ],
      "stateMutability": "view",
      "type": "function"
    },
    {
      "inputs": [],
      "name": "tempMint",
      "outputs": [],
      "stateMutability": "nonpayable",
      "type": "function"
    },
    {
      "inputs": [
        {
          "internalType": "address",
          "name": "to",
          "type": "address"
        }
      ],
      "name": "transferOwnership",
      "outputs": [],
      "stateMutability": "nonpayable",
      "type": "function"
    },
    {
      "inputs": [
        {
          "internalType": "uint256",
          "name": "_value",
          "type": "uint256"
        }
      ],
      "name": "uintToString",
      "outputs": [
        {
          "internalType": "string",
          "name": "",
          "type": "string"
        }
      ],
      "stateMutability": "pure",
      "type": "function"
    },
    {
      "inputs": [
        {
          "internalType": "uint256",
          "name": "",
          "type": "uint256"
        }
      ],
      "name": "uri",
      "outputs": [
        {
          "internalType": "string",
          "name": "",
          "type": "string"
        }
      ],
      "stateMutability": "view",
      "type": "function"
    },
    {
      "inputs": [],
      "name": "urlTest",
      "outputs": [
        {
          "internalType": "string",
          "name": "",
          "type": "string"
        }
      ],
      "stateMutability": "view",
      "type": "function"
    },
    {
      "inputs": [],
      "name": "volume",
      "outputs": [
        {
          "internalType": "uint256",
          "name": "",
          "type": "uint256"
        }
      ],
      "stateMutability": "view",
      "type": "function"
    },
    {
      "inputs": [
        {
          "internalType": "address",
          "name": "",
          "type": "address"
        }
      ],
      "name": "watchers",
      "outputs": [
        {
          "internalType": "bool",
          "name": "",
          "type": "bool"
        }
      ],
      "stateMutability": "view",
      "type": "function"
    },
    {
      "inputs": [],
      "name": "withdrawLink",
      "outputs": [],
      "stateMutability": "nonpayable",
      "type": "function"
    }
  ],
  "transactionHash": "0x520607de0f5f91d9df6df611e759f4ccbfbec62357576ce924462c46b6066016",
  "args": [
    "https://gateway.pinata.cloud/ipfs/QmPosh8tfsqc2utmhMCtdMh2vgySXx9rhuN8CoLJKq3b5K/",
    60000
  ],
  "numDeployments": 1,
  "solcInputHash": "b04293f43b5d5077e2c59d4dea4115a4",
  "bytecode": "0x60a060405260016007553480156200001657600080fd5b5060405162005e5a38038062005e5a83398181016040528101906200003c91906200066a565b80338060008562000053816200020d60201b60201c565b50600073ffffffffffffffffffffffffffffffffffffffff168273ffffffffffffffffffffffffffffffffffffffff1603620000c6576040517f08c379a0000000000000000000000000000000000000000000000000000000008152600401620000bd9062000731565b60405180910390fd5b81600960006101000a81548173ffffffffffffffffffffffffffffffffffffffff021916908373ffffffffffffffffffffffffffffffffffffffff160217905550600073ffffffffffffffffffffffffffffffffffffffff168173ffffffffffffffffffffffffffffffffffffffff16146200014e576200014d816200022960201b60201c565b5b5050506200017673f97f4df75117a78c1a5a0dbb814af92458539fb46200035a60201b60201c565b6200019b73cc79157eb46f5624204f47ab42b3906caa40eab76200039e60201b60201c565b7f6331633565393238383038393465623662323764336361653139363730616133600c81905550600a670de0b6b3a76400006001620001db919062000782565b620001e7919062000812565b600d81905550806080818152505042601181905550600060108190555050505062000920565b806002908051906020019062000225929190620003e2565b5050565b3373ffffffffffffffffffffffffffffffffffffffff168173ffffffffffffffffffffffffffffffffffffffff16036200029a576040517f08c379a000000000000000000000000000000000000000000000000000000000815260040162000291906200089a565b60405180910390fd5b80600a60006101000a81548173ffffffffffffffffffffffffffffffffffffffff021916908373ffffffffffffffffffffffffffffffffffffffff1602179055508073ffffffffffffffffffffffffffffffffffffffff16600960009054906101000a900473ffffffffffffffffffffffffffffffffffffffff1673ffffffffffffffffffffffffffffffffffffffff167fed8889f560326eb138920d842192f0eb3dd22b4f139c87a2c57538e05bae127860405160405180910390a350565b80600560006101000a81548173ffffffffffffffffffffffffffffffffffffffff021916908373ffffffffffffffffffffffffffffffffffffffff16021790555050565b80600660006101000a81548173ffffffffffffffffffffffffffffffffffffffff021916908373ffffffffffffffffffffffffffffffffffffffff16021790555050565b828054620003f090620008eb565b90600052602060002090601f01602090048101928262000414576000855562000460565b82601f106200042f57805160ff191683800117855562000460565b8280016001018555821562000460579182015b828111156200045f57825182559160200191906001019062000442565b5b5090506200046f919062000473565b5090565b5b808211156200048e57600081600090555060010162000474565b5090565b6000604051905090565b600080fd5b600080fd5b600080fd5b600080fd5b6000601f19601f8301169050919050565b7f4e487b7100000000000000000000000000000000000000000000000000000000600052604160045260246000fd5b620004fb82620004b0565b810181811067ffffffffffffffff821117156200051d576200051c620004c1565b5b80604052505050565b60006200053262000492565b9050620005408282620004f0565b919050565b600067ffffffffffffffff821115620005635762000562620004c1565b5b6200056e82620004b0565b9050602081019050919050565b60005b838110156200059b5780820151818401526020810190506200057e565b83811115620005ab576000848401525b50505050565b6000620005c8620005c28462000545565b62000526565b905082815260208101848484011115620005e757620005e6620004ab565b5b620005f48482856200057b565b509392505050565b600082601f830112620006145762000613620004a6565b5b815162000626848260208601620005b1565b91505092915050565b6000819050919050565b62000644816200062f565b81146200065057600080fd5b50565b600081519050620006648162000639565b92915050565b600080604083850312156200068457620006836200049c565b5b600083015167ffffffffffffffff811115620006a557620006a4620004a1565b5b620006b385828601620005fc565b9250506020620006c68582860162000653565b9150509250929050565b600082825260208201905092915050565b7f43616e6e6f7420736574206f776e657220746f207a65726f0000000000000000600082015250565b600062000719601883620006d0565b91506200072682620006e1565b602082019050919050565b600060208201905081810360008301526200074c816200070a565b9050919050565b7f4e487b7100000000000000000000000000000000000000000000000000000000600052601160045260246000fd5b60006200078f826200062f565b91506200079c836200062f565b9250817fffffffffffffffffffffffffffffffffffffffffffffffffffffffffffffffff0483118215151615620007d857620007d762000753565b5b828202905092915050565b7f4e487b7100000000000000000000000000000000000000000000000000000000600052601260045260246000fd5b60006200081f826200062f565b91506200082c836200062f565b9250826200083f576200083e620007e3565b5b828204905092915050565b7f43616e6e6f74207472616e7366657220746f2073656c66000000000000000000600082015250565b600062000882601783620006d0565b91506200088f826200084a565b602082019050919050565b60006020820190508181036000830152620008b58162000873565b9050919050565b7f4e487b7100000000000000000000000000000000000000000000000000000000600052602260045260246000fd5b600060028204905060018216806200090457607f821691505b6020821081036200091a5762000919620008bc565b5b50919050565b6080516155106200094a600039600081816109d501528181610b76015261115a01526155106000f3fe608060405234801561001057600080fd5b50600436106101e45760003560e01c806374402d211161010f578063b3c6435f116100a2578063e985e9c511610071578063e985e9c51461055c578063f242432a1461058c578063f2fde38b146105a8578063fd68990a146105c4576101e4565b8063b3c6435f146104e6578063c618a1e4146104f0578063e5ada13e1461050e578063e93956791461052c576101e4565b80638da5cb5b116100de5780638da5cb5b146104845780638dc654a2146104a2578063947a36fb146104ac578063a22cb465146104ca576101e4565b806374402d2114610422578063782773171461042c57806379ba50971461045c57806388ca1e2614610466576101e4565b8063201fd7f5116101875780634e1273f4116101565780634e1273f414610373578063596150d7146103a357806361bc221a146103d35780636e04ff0d146103f1576101e4565b8063201fd7f5146103015780632eb2c2d61461031d5780633f3b3b27146103395780634585e33b14610357576101e4565b80630f6cee49116101c35780630f6cee491461027957806319d40b08146102835780631e7269c5146102a15780632002a0c0146102d1576101e4565b8062fdd58e146101e957806301ffc9a7146102195780630e89341c14610249575b600080fd5b61020360048036038101906101fe919061369f565b6105e0565b60405161021091906136ee565b60405180910390f35b610233600480360381019061022e9190613761565b6106a8565b60405161024091906137a9565b60405180910390f35b610263600480360381019061025e91906137c4565b61078a565b604051610270919061388a565b60405180910390f35b61028161081e565b005b61028b610892565b60405161029891906137a9565b60405180910390f35b6102bb60048036038101906102b691906138ac565b6108a5565b6040516102c891906137a9565b60405180910390f35b6102eb60048036038101906102e691906137c4565b6108c5565b6040516102f891906138e8565b60405180910390f35b61031b600480360381019061031691906138ac565b610904565b005b61033760048036038101906103329190613b00565b61092c565b005b6103416109cd565b60405161034e91906136ee565b60405180910390f35b610371600480360381019061036c9190613c2a565b6109d3565b005b61038d60048036038101906103889190613d3a565b610a31565b60405161039a9190613e70565b60405180910390f35b6103bd60048036038101906103b891906138ac565b610b4a565b6040516103ca91906137a9565b60405180910390f35b6103db610b6a565b6040516103e891906136ee565b60405180910390f35b61040b60048036038101906104069190613c2a565b610b70565b604051610419929190613ee7565b60405180910390f35b61042a610bad565b005b610446600480360381019061044191906138ac565b610c23565b6040516104539190613f30565b60405180910390f35b610464610dbc565b005b61046e610f53565b60405161047b919061388a565b60405180910390f35b61048c610fe1565b60405161049991906138e8565b60405180910390f35b6104aa61100b565b005b6104b4611158565b6040516104c191906136ee565b60405180910390f35b6104e460048036038101906104df9190613f77565b61117c565b005b6104ee611192565b005b6104f861124f565b60405161050591906136ee565b60405180910390f35b610516611255565b604051610523919061388a565b60405180910390f35b610546600480360381019061054191906137c4565b6112e3565b604051610553919061388a565b60405180910390f35b61057660048036038101906105719190613fb7565b6115d8565b60405161058391906137a9565b60405180910390f35b6105a660048036038101906105a19190613ff7565b61166c565b005b6105c260048036038101906105bd91906138ac565b61170d565b005b6105de60048036038101906105d991906140ba565b611721565b005b60008073ffffffffffffffffffffffffffffffffffffffff168373ffffffffffffffffffffffffffffffffffffffff1603610650576040517f08c379a00000000000000000000000000000000000000000000000000000000081526004016106479061416c565b60405180910390fd5b60008083815260200190815260200160002060008473ffffffffffffffffffffffffffffffffffffffff1673ffffffffffffffffffffffffffffffffffffffff16815260200190815260200160002054905092915050565b60007fd9b67a26000000000000000000000000000000000000000000000000000000007bffffffffffffffffffffffffffffffffffffffffffffffffffffffff1916827bffffffffffffffffffffffffffffffffffffffffffffffffffffffff1916148061077357507f0e89341c000000000000000000000000000000000000000000000000000000007bffffffffffffffffffffffffffffffffffffffffffffffffffffffff1916827bffffffffffffffffffffffffffffffffffffffffffffffffffffffff1916145b80610783575061078282611952565b5b9050919050565b606060028054610799906141bb565b80601f01602080910402602001604051908101604052809291908181526020018280546107c5906141bb565b80156108125780601f106107e757610100808354040283529160200191610812565b820191906000526020600020905b8154815290600101906020018083116107f557829003601f168201915b50505050509050919050565b60005b60128054905081101561088f57600060128281548110610844576108436141ec565b5b9060005260206000200160009054906101000a900473ffffffffffffffffffffffffffffffffffffffff16905061087a81610c23565b505080806108879061424a565b915050610821565b50565b600e60009054906101000a900460ff1681565b60166020528060005260406000206000915054906101000a900460ff1681565b601281815481106108d557600080fd5b906000526020600020016000915054906101000a900473ffffffffffffffffffffffffffffffffffffffff1681565b600061090f826119bc565b905080600f90805190602001906109279291906134cd565b505050565b6109346119ed565b73ffffffffffffffffffffffffffffffffffffffff168573ffffffffffffffffffffffffffffffffffffffff16148061097a5750610979856109746119ed565b6115d8565b5b6109b9576040517f08c379a00000000000000000000000000000000000000000000000000000000081526004016109b090614304565b60405180910390fd5b6109c685858585856119f5565b5050505050565b60115481565b7f000000000000000000000000000000000000000000000000000000000000000060115442610a029190614324565b1115610a2d57426011819055506001601054610a1e9190614358565b601081905550610a2c61081e565b5b5050565b60608151835114610a77576040517f08c379a0000000000000000000000000000000000000000000000000000000008152600401610a6e90614420565b60405180910390fd5b6000835167ffffffffffffffff811115610a9457610a93613908565b5b604051908082528060200260200182016040528015610ac25781602001602082028036833780820191505090505b50905060005b8451811015610b3f57610b0f858281518110610ae757610ae66141ec565b5b6020026020010151858381518110610b0257610b016141ec565b5b60200260200101516105e0565b828281518110610b2257610b216141ec565b5b60200260200101818152505080610b389061424a565b9050610ac8565b508091505092915050565b60136020528060005260406000206000915054906101000a900460ff1681565b60105481565b600060607f000000000000000000000000000000000000000000000000000000000000000060115442610ba39190614324565b1191509250929050565b610bc93360018060405180602001604052806000815250611d16565b6001601660003373ffffffffffffffffffffffffffffffffffffffff1673ffffffffffffffffffffffffffffffffffffffff16815260200190815260200160002060006101000a81548160ff021916908315150217905550565b600080610c3a600c543063fd68990a60e01b611ec6565b90506000610c47846119bc565b9050610c936040518060400160405280600381526020017f67657400000000000000000000000000000000000000000000000000000000008152508284611ef79092919063ffffffff16565b610d126040518060400160405280600481526020017f70617468000000000000000000000000000000000000000000000000000000008152506040518060400160405280600781526020017f737563636573730000000000000000000000000000000000000000000000000081525084611ef79092919063ffffffff16565b6000610d2083600d54611f2a565b9050846014600083815260200190815260200160002060006101000a81548173ffffffffffffffffffffffffffffffffffffffff021916908373ffffffffffffffffffffffffffffffffffffffff160217905550600c547f2a59adc454390ac082968c8c50e27a9901b5266815783beaea3e73e7cf992d4f600184604051610da9929190614440565b60405180910390a2809350505050919050565b600a60009054906101000a900473ffffffffffffffffffffffffffffffffffffffff1673ffffffffffffffffffffffffffffffffffffffff163373ffffffffffffffffffffffffffffffffffffffff1614610e4c576040517f08c379a0000000000000000000000000000000000000000000000000000000008152600401610e43906144bc565b60405180910390fd5b6000600960009054906101000a900473ffffffffffffffffffffffffffffffffffffffff16905033600960006101000a81548173ffffffffffffffffffffffffffffffffffffffff021916908373ffffffffffffffffffffffffffffffffffffffff1602179055506000600a60006101000a81548173ffffffffffffffffffffffffffffffffffffffff021916908373ffffffffffffffffffffffffffffffffffffffff1602179055503373ffffffffffffffffffffffffffffffffffffffff168173ffffffffffffffffffffffffffffffffffffffff167f8be0079c531659141344cd1fd0a4f28419497f9722a3daafe3b4186f6b6457e060405160405180910390a350565b600f8054610f60906141bb565b80601f0160208091040260200160405190810160405280929190818152602001828054610f8c906141bb565b8015610fd95780601f10610fae57610100808354040283529160200191610fd9565b820191906000526020600020905b815481529060010190602001808311610fbc57829003601f168201915b505050505081565b6000600960009054906101000a900473ffffffffffffffffffffffffffffffffffffffff16905090565b611013611f61565b600061101d611ff3565b90508073ffffffffffffffffffffffffffffffffffffffff1663a9059cbb338373ffffffffffffffffffffffffffffffffffffffff166370a08231306040518263ffffffff1660e01b815260040161107591906138e8565b602060405180830381865afa158015611092573d6000803e3d6000fd5b505050506040513d601f19601f820116820180604052508101906110b691906144f1565b6040518363ffffffff1660e01b81526004016110d392919061451e565b6020604051808303816000875af11580156110f2573d6000803e3d6000fd5b505050506040513d601f19601f82011682018060405250810190611116919061455c565b611155576040517f08c379a000000000000000000000000000000000000000000000000000000000815260040161114c906145d5565b60405180910390fd5b50565b7f000000000000000000000000000000000000000000000000000000000000000081565b61118e6111876119ed565b838361201d565b5050565b6001601360003373ffffffffffffffffffffffffffffffffffffffff1673ffffffffffffffffffffffffffffffffffffffff16815260200190815260200160002060006101000a81548160ff0219169083151502179055506012339080600181540180825580915050600190039060005260206000200160009091909190916101000a81548173ffffffffffffffffffffffffffffffffffffffff021916908373ffffffffffffffffffffffffffffffffffffffff160217905550565b600b5481565b60158054611262906141bb565b80601f016020809104026020016040519081016040528092919081815260200182805461128e906141bb565b80156112db5780601f106112b0576101008083540402835291602001916112db565b820191906000526020600020905b8154815290600101906020018083116112be57829003601f168201915b505050505081565b606060008260001b905060006040518060400160405280601081526020017f303132333435363738396162636465660000000000000000000000000000000081525090506000602a67ffffffffffffffff81111561134457611343613908565b5b6040519080825280601f01601f1916602001820160405280156113765781602001600182028036833780820191505090505b5090507f3000000000000000000000000000000000000000000000000000000000000000816000815181106113ae576113ad6141ec565b5b60200101907effffffffffffffffffffffffffffffffffffffffffffffffffffffffffffff1916908160001a9053507f780000000000000000000000000000000000000000000000000000000000000081600181518110611412576114116141ec565b5b60200101907effffffffffffffffffffffffffffffffffffffffffffffffffffffffffffff1916908160001a90535060005b60148110156115cc5782600485600c8461145e9190614358565b6020811061146f5761146e6141ec565b5b1a60f81b7effffffffffffffffffffffffffffffffffffffffffffffffffffffffffffff1916901c60f81c60ff16815181106114ae576114ad6141ec565b5b602001015160f81c60f81b826002836114c791906145f5565b60026114d39190614358565b815181106114e4576114e36141ec565b5b60200101907effffffffffffffffffffffffffffffffffffffffffffffffffffffffffffff1916908160001a90535082600f60f81b85600c846115279190614358565b60208110611538576115376141ec565b5b1a60f81b1660f81c60ff1681518110611554576115536141ec565b5b602001015160f81c60f81b8260028361156d91906145f5565b60036115799190614358565b8151811061158a576115896141ec565b5b60200101907effffffffffffffffffffffffffffffffffffffffffffffffffffffffffffff1916908160001a90535080806115c49061424a565b915050611444565b50809350505050919050565b6000600160008473ffffffffffffffffffffffffffffffffffffffff1673ffffffffffffffffffffffffffffffffffffffff16815260200190815260200160002060008373ffffffffffffffffffffffffffffffffffffffff1673ffffffffffffffffffffffffffffffffffffffff16815260200190815260200160002060009054906101000a900460ff16905092915050565b6116746119ed565b73ffffffffffffffffffffffffffffffffffffffff168573ffffffffffffffffffffffffffffffffffffffff1614806116ba57506116b9856116b46119ed565b6115d8565b5b6116f9576040517f08c379a00000000000000000000000000000000000000000000000000000000081526004016116f090614304565b60405180910390fd5b6117068585858585612189565b5050505050565b611715611f61565b61171e81612424565b50565b816008600082815260200190815260200160002060009054906101000a900473ffffffffffffffffffffffffffffffffffffffff1673ffffffffffffffffffffffffffffffffffffffff163373ffffffffffffffffffffffffffffffffffffffff16146117c3576040517f08c379a00000000000000000000000000000000000000000000000000000000081526004016117ba906146c1565b60405180910390fd5b6008600082815260200190815260200160002060006101000a81549073ffffffffffffffffffffffffffffffffffffffff0219169055807f7cc135e0cebb02c3480ae5d74d377283180a2601f8f644edf7987b009316c63a60405160405180910390a260006014600085815260200190815260200160002060009054906101000a900473ffffffffffffffffffffffffffffffffffffffff1690506001925082156119115761187181612552565b60005b60128054905081101561190f5760128181548110611895576118946141ec565b5b9060005260206000200160009054906101000a900473ffffffffffffffffffffffffffffffffffffffff1673ffffffffffffffffffffffffffffffffffffffff168273ffffffffffffffffffffffffffffffffffffffff16036118fc576118fb816125c9565b5b80806119079061424a565b915050611874565b505b837f2a59adc454390ac082968c8c50e27a9901b5266815783beaea3e73e7cf992d4f846015604051611944929190614776565b60405180910390a250505050565b60007f01ffc9a7000000000000000000000000000000000000000000000000000000007bffffffffffffffffffffffffffffffffffffffffffffffffffffffff1916827bffffffffffffffffffffffffffffffffffffffffffffffffffffffff1916149050919050565b60606119c7826126cd565b6040516020016119d79190614854565b6040516020818303038152906040529050919050565b600033905090565b8151835114611a39576040517f08c379a0000000000000000000000000000000000000000000000000000000008152600401611a30906148e8565b60405180910390fd5b600073ffffffffffffffffffffffffffffffffffffffff168473ffffffffffffffffffffffffffffffffffffffff1603611aa8576040517f08c379a0000000000000000000000000000000000000000000000000000000008152600401611a9f9061497a565b60405180910390fd5b6000611ab26119ed565b9050611ac2818787878787612890565b60005b8451811015611c73576000858281518110611ae357611ae26141ec565b5b602002602001015190506000858381518110611b0257611b016141ec565b5b60200260200101519050600080600084815260200190815260200160002060008b73ffffffffffffffffffffffffffffffffffffffff1673ffffffffffffffffffffffffffffffffffffffff16815260200190815260200160002054905081811015611ba3576040517f08c379a0000000000000000000000000000000000000000000000000000000008152600401611b9a90614a0c565b60405180910390fd5b81810360008085815260200190815260200160002060008c73ffffffffffffffffffffffffffffffffffffffff1673ffffffffffffffffffffffffffffffffffffffff168152602001908152602001600020819055508160008085815260200190815260200160002060008b73ffffffffffffffffffffffffffffffffffffffff1673ffffffffffffffffffffffffffffffffffffffff1681526020019081526020016000206000828254611c589190614358565b9250508190555050505080611c6c9061424a565b9050611ac5565b508473ffffffffffffffffffffffffffffffffffffffff168673ffffffffffffffffffffffffffffffffffffffff168273ffffffffffffffffffffffffffffffffffffffff167f4a39dc06d4c0dbc64b70af90fd698a233a518aa5d07e595d983b8c0526c8f7fb8787604051611cea929190614a2c565b60405180910390a4611d00818787878787612898565b611d0e8187878787876128a0565b505050505050565b600073ffffffffffffffffffffffffffffffffffffffff168473ffffffffffffffffffffffffffffffffffffffff1603611d85576040517f08c379a0000000000000000000000000000000000000000000000000000000008152600401611d7c90614ad5565b60405180910390fd5b6000611d8f6119ed565b90506000611d9c85612a77565b90506000611da985612a77565b9050611dba83600089858589612890565b8460008088815260200190815260200160002060008973ffffffffffffffffffffffffffffffffffffffff1673ffffffffffffffffffffffffffffffffffffffff1681526020019081526020016000206000828254611e199190614358565b925050819055508673ffffffffffffffffffffffffffffffffffffffff16600073ffffffffffffffffffffffffffffffffffffffff168473ffffffffffffffffffffffffffffffffffffffff167fc3d58168c5ae7397731d063d5bbf3d657854427343f4c083240f7aacaa2d0f628989604051611e97929190614af5565b60405180910390a4611eae83600089858589612898565b611ebd83600089898989612af1565b50505050505050565b611ece613553565b611ed6613553565b611eed85858584612cc8909392919063ffffffff16565b9150509392505050565b611f0e828460800151612d7890919063ffffffff16565b611f25818460800151612d7890919063ffffffff16565b505050565b6000611f59600660009054906101000a900473ffffffffffffffffffffffffffffffffffffffff168484612d9d565b905092915050565b600960009054906101000a900473ffffffffffffffffffffffffffffffffffffffff1673ffffffffffffffffffffffffffffffffffffffff163373ffffffffffffffffffffffffffffffffffffffff1614611ff1576040517f08c379a0000000000000000000000000000000000000000000000000000000008152600401611fe890614b6a565b60405180910390fd5b565b6000600560009054906101000a900473ffffffffffffffffffffffffffffffffffffffff16905090565b8173ffffffffffffffffffffffffffffffffffffffff168373ffffffffffffffffffffffffffffffffffffffff160361208b576040517f08c379a000000000000000000000000000000000000000000000000000000000815260040161208290614bfc565b60405180910390fd5b80600160008573ffffffffffffffffffffffffffffffffffffffff1673ffffffffffffffffffffffffffffffffffffffff16815260200190815260200160002060008473ffffffffffffffffffffffffffffffffffffffff1673ffffffffffffffffffffffffffffffffffffffff16815260200190815260200160002060006101000a81548160ff0219169083151502179055508173ffffffffffffffffffffffffffffffffffffffff168373ffffffffffffffffffffffffffffffffffffffff167f17307eab39ab6107e8899845ad3d59bd9653f200f220920489ca2b5937696c318360405161217c91906137a9565b60405180910390a3505050565b600073ffffffffffffffffffffffffffffffffffffffff168473ffffffffffffffffffffffffffffffffffffffff16036121f8576040517f08c379a00000000000000000000000000000000000000000000000000000000081526004016121ef9061497a565b60405180910390fd5b60006122026119ed565b9050600061220f85612a77565b9050600061221c85612a77565b905061222c838989858589612890565b600080600088815260200190815260200160002060008a73ffffffffffffffffffffffffffffffffffffffff1673ffffffffffffffffffffffffffffffffffffffff168152602001908152602001600020549050858110156122c3576040517f08c379a00000000000000000000000000000000000000000000000000000000081526004016122ba90614a0c565b60405180910390fd5b85810360008089815260200190815260200160002060008b73ffffffffffffffffffffffffffffffffffffffff1673ffffffffffffffffffffffffffffffffffffffff168152602001908152602001600020819055508560008089815260200190815260200160002060008a73ffffffffffffffffffffffffffffffffffffffff1673ffffffffffffffffffffffffffffffffffffffff16815260200190815260200160002060008282546123789190614358565b925050819055508773ffffffffffffffffffffffffffffffffffffffff168973ffffffffffffffffffffffffffffffffffffffff168573ffffffffffffffffffffffffffffffffffffffff167fc3d58168c5ae7397731d063d5bbf3d657854427343f4c083240f7aacaa2d0f628a8a6040516123f5929190614af5565b60405180910390a461240b848a8a86868a612898565b612419848a8a8a8a8a612af1565b505050505050505050565b3373ffffffffffffffffffffffffffffffffffffffff168173ffffffffffffffffffffffffffffffffffffffff1603612492576040517f08c379a000000000000000000000000000000000000000000000000000000000815260040161248990614c68565b60405180910390fd5b80600a60006101000a81548173ffffffffffffffffffffffffffffffffffffffff021916908373ffffffffffffffffffffffffffffffffffffffff1602179055508073ffffffffffffffffffffffffffffffffffffffff16600960009054906101000a900473ffffffffffffffffffffffffffffffffffffffff1673ffffffffffffffffffffffffffffffffffffffff167fed8889f560326eb138920d842192f0eb3dd22b4f139c87a2c57538e05bae127860405160405180910390a350565b61256e8160018060405180602001604052806000815250611d16565b6001601660008373ffffffffffffffffffffffffffffffffffffffff1673ffffffffffffffffffffffffffffffffffffffff16815260200190815260200160002060006101000a81548160ff02191690831515021790555050565b6012805490508110156126ca57601260016012805490506125ea9190614324565b815481106125fb576125fa6141ec565b5b9060005260206000200160009054906101000a900473ffffffffffffffffffffffffffffffffffffffff166012828154811061263a576126396141ec565b5b9060005260206000200160006101000a81548173ffffffffffffffffffffffffffffffffffffffff021916908373ffffffffffffffffffffffffffffffffffffffff160217905550601280548061269457612693614c88565b5b6001900381819060005260206000200160006101000a81549073ffffffffffffffffffffffffffffffffffffffff021916905590555b50565b60606000602867ffffffffffffffff8111156126ec576126eb613908565b5b6040519080825280601f01601f19166020018201604052801561271e5781602001600182028036833780820191505090505b50905060005b601481101561288657600081601361273c9190614324565b600861274891906145f5565b60026127549190614dea565b8573ffffffffffffffffffffffffffffffffffffffff166127759190614e64565b60f81b9050600060108260f81c61278c9190614ea2565b60f81b905060008160f81c60106127a39190614ed3565b8360f81c6127b19190614f0e565b60f81b90506127bf82612e69565b858560026127cd91906145f5565b815181106127de576127dd6141ec565b5b60200101907effffffffffffffffffffffffffffffffffffffffffffffffffffffffffffff1916908160001a90535061281681612e69565b85600186600261282691906145f5565b6128309190614358565b81518110612841576128406141ec565b5b60200101907effffffffffffffffffffffffffffffffffffffffffffffffffffffffffffff1916908160001a905350505050808061287e9061424a565b915050612724565b5080915050919050565b505050505050565b505050505050565b6128bf8473ffffffffffffffffffffffffffffffffffffffff16612eaf565b15612a6f578373ffffffffffffffffffffffffffffffffffffffff1663bc197c8187878686866040518663ffffffff1660e01b8152600401612905959493929190614f42565b6020604051808303816000875af192505050801561294157506040513d601f19601f8201168201806040525081019061293e9190614fbf565b60015b6129e65761294d614ff9565b806308c379a0036129a9575061296161501b565b8061296c57506129ab565b806040517f08c379a00000000000000000000000000000000000000000000000000000000081526004016129a0919061388a565b60405180910390fd5b505b6040517f08c379a00000000000000000000000000000000000000000000000000000000081526004016129dd9061511d565b60405180910390fd5b63bc197c8160e01b7bffffffffffffffffffffffffffffffffffffffffffffffffffffffff1916817bffffffffffffffffffffffffffffffffffffffffffffffffffffffff191614612a6d576040517f08c379a0000000000000000000000000000000000000000000000000000000008152600401612a64906151af565b60405180910390fd5b505b505050505050565b60606000600167ffffffffffffffff811115612a9657612a95613908565b5b604051908082528060200260200182016040528015612ac45781602001602082028036833780820191505090505b5090508281600081518110612adc57612adb6141ec565b5b60200260200101818152505080915050919050565b612b108473ffffffffffffffffffffffffffffffffffffffff16612eaf565b15612cc0578373ffffffffffffffffffffffffffffffffffffffff1663f23a6e6187878686866040518663ffffffff1660e01b8152600401612b569594939291906151cf565b6020604051808303816000875af1925050508015612b9257506040513d601f19601f82011682018060405250810190612b8f9190614fbf565b60015b612c3757612b9e614ff9565b806308c379a003612bfa5750612bb261501b565b80612bbd5750612bfc565b806040517f08c379a0000000000000000000000000000000000000000000000000000000008152600401612bf1919061388a565b60405180910390fd5b505b6040517f08c379a0000000000000000000000000000000000000000000000000000000008152600401612c2e9061511d565b60405180910390fd5b63f23a6e6160e01b7bffffffffffffffffffffffffffffffffffffffffffffffffffffffff1916817bffffffffffffffffffffffffffffffffffffffffffffffffffffffff191614612cbe576040517f08c379a0000000000000000000000000000000000000000000000000000000008152600401612cb5906151af565b60405180910390fd5b505b505050505050565b612cd0613553565b612ce08560800151610100612ed2565b508385600001818152505082856020019073ffffffffffffffffffffffffffffffffffffffff16908173ffffffffffffffffffffffffffffffffffffffff16815250508185604001907bffffffffffffffffffffffffffffffffffffffffffffffffffffffff191690817bffffffffffffffffffffffffffffffffffffffffffffffffffffffff191681525050849050949350505050565b612d858260038351612f3c565b612d9881836130c190919063ffffffff16565b505050565b6000806007549050600181612db29190614358565b6007819055506000634042994660e01b60008087600001513089604001518760018c6080015160000151604051602401612df3989796959493929190615238565b604051602081830303815290604052907bffffffffffffffffffffffffffffffffffffffffffffffffffffffff19166020820180517bffffffffffffffffffffffffffffffffffffffffffffffffffffffff83818316178352505050509050612e5e868386846130e3565b925050509392505050565b6000600a8260f81c60ff161015612e945760308260f81c612e8a91906152bd565b60f81b9050612eaa565b60578260f81c612ea491906152bd565b60f81b90505b919050565b6000808273ffffffffffffffffffffffffffffffffffffffff163b119050919050565b612eda6135c0565b6000602083612ee991906152f4565b14612f1557602082612efb91906152f4565b6020612f079190614324565b82612f129190614358565b91505b81836020018181525050604051808452600081528281016020016040525082905092915050565b60178167ffffffffffffffff1611612f7357612f6d8160058460ff16901b60ff16178461327890919063ffffffff16565b506130bc565b60ff8167ffffffffffffffff1611612fc957612fa2601860058460ff16901b178461327890919063ffffffff16565b50612fc38167ffffffffffffffff166001856132989092919063ffffffff16565b506130bb565b61ffff8167ffffffffffffffff161161302057612ff9601960058460ff16901b178461327890919063ffffffff16565b5061301a8167ffffffffffffffff166002856132989092919063ffffffff16565b506130ba565b63ffffffff8167ffffffffffffffff161161307957613052601a60058460ff16901b178461327890919063ffffffff16565b506130738167ffffffffffffffff166004856132989092919063ffffffff16565b506130b9565b613096601b60058460ff16901b178461327890919063ffffffff16565b506130b78167ffffffffffffffff166008856132989092919063ffffffff16565b505b5b5b5b505050565b6130c96135c0565b6130db838460000151518485516132ba565b905092915050565b600030846040516020016130f89291906153de565b604051602081830303815290604052805190602001209050846008600083815260200190815260200160002060006101000a81548173ffffffffffffffffffffffffffffffffffffffff021916908373ffffffffffffffffffffffffffffffffffffffff160217905550807fb5e6e01e79f91267dc17b4e6314d5d4d03593d2ceee0fbb452b750bd70ea5af960405160405180910390a2600560009054906101000a900473ffffffffffffffffffffffffffffffffffffffff1673ffffffffffffffffffffffffffffffffffffffff16634000aea08685856040518463ffffffff1660e01b81526004016131ee9392919061540a565b6020604051808303816000875af115801561320d573d6000803e3d6000fd5b505050506040513d601f19601f82011682018060405250810190613231919061455c565b613270576040517f08c379a0000000000000000000000000000000000000000000000000000000008152600401613267906154ba565b60405180910390fd5b949350505050565b6132806135c0565b61329083846000015151846133a9565b905092915050565b6132a06135c0565b6132b18485600001515185856133ff565b90509392505050565b6132c26135c0565b82518211156132d057600080fd5b846020015182856132e19190614358565b111561331657613315856002613306886020015188876133019190614358565b61348d565b61331091906145f5565b6134a9565b5b6000808651805187602083010193508088870111156133355787860182525b60208701925050505b6020841061337c57805182526020826133579190614358565b91506020816133669190614358565b90506020846133759190614324565b935061333e565b60006001856020036101000a03905080198251168184511681811785525050508692505050949350505050565b6133b16135c0565b836020015183106133d7576133d684600286602001516133d191906145f5565b6134a9565b5b835180516020858301018481538186036133f2576001820183525b5050508390509392505050565b6134076135c0565b846020015184836134189190614358565b11156134405761343f85600286856134309190614358565b61343a91906145f5565b6134a9565b5b60006001836101006134529190614dea565b61345c9190614324565b9050855183868201018583198251161781528151858801111561347f5784870182525b505085915050949350505050565b60008183111561349f578290506134a3565b8190505b92915050565b6000826000015190506134bc8383612ed2565b506134c783826130c1565b50505050565b8280546134d9906141bb565b90600052602060002090601f0160209004810192826134fb5760008555613542565b82601f1061351457805160ff1916838001178555613542565b82800160010185558215613542579182015b82811115613541578251825591602001919060010190613526565b5b50905061354f91906135da565b5090565b6040518060a0016040528060008019168152602001600073ffffffffffffffffffffffffffffffffffffffff16815260200160007bffffffffffffffffffffffffffffffffffffffffffffffffffffffff19168152602001600081526020016135ba6135c0565b81525090565b604051806040016040528060608152602001600081525090565b5b808211156135f35760008160009055506001016135db565b5090565b6000604051905090565b600080fd5b600080fd5b600073ffffffffffffffffffffffffffffffffffffffff82169050919050565b60006136368261360b565b9050919050565b6136468161362b565b811461365157600080fd5b50565b6000813590506136638161363d565b92915050565b6000819050919050565b61367c81613669565b811461368757600080fd5b50565b60008135905061369981613673565b92915050565b600080604083850312156136b6576136b5613601565b5b60006136c485828601613654565b92505060206136d58582860161368a565b9150509250929050565b6136e881613669565b82525050565b600060208201905061370360008301846136df565b92915050565b60007fffffffff0000000000000000000000000000000000000000000000000000000082169050919050565b61373e81613709565b811461374957600080fd5b50565b60008135905061375b81613735565b92915050565b60006020828403121561377757613776613601565b5b60006137858482850161374c565b91505092915050565b60008115159050919050565b6137a38161378e565b82525050565b60006020820190506137be600083018461379a565b92915050565b6000602082840312156137da576137d9613601565b5b60006137e88482850161368a565b91505092915050565b600081519050919050565b600082825260208201905092915050565b60005b8381101561382b578082015181840152602081019050613810565b8381111561383a576000848401525b50505050565b6000601f19601f8301169050919050565b600061385c826137f1565b61386681856137fc565b935061387681856020860161380d565b61387f81613840565b840191505092915050565b600060208201905081810360008301526138a48184613851565b905092915050565b6000602082840312156138c2576138c1613601565b5b60006138d084828501613654565b91505092915050565b6138e28161362b565b82525050565b60006020820190506138fd60008301846138d9565b92915050565b600080fd5b7f4e487b7100000000000000000000000000000000000000000000000000000000600052604160045260246000fd5b61394082613840565b810181811067ffffffffffffffff8211171561395f5761395e613908565b5b80604052505050565b60006139726135f7565b905061397e8282613937565b919050565b600067ffffffffffffffff82111561399e5761399d613908565b5b602082029050602081019050919050565b600080fd5b60006139c76139c284613983565b613968565b905080838252602082019050602084028301858111156139ea576139e96139af565b5b835b81811015613a1357806139ff888261368a565b8452602084019350506020810190506139ec565b5050509392505050565b600082601f830112613a3257613a31613903565b5b8135613a428482602086016139b4565b91505092915050565b600080fd5b600067ffffffffffffffff821115613a6b57613a6a613908565b5b613a7482613840565b9050602081019050919050565b82818337600083830152505050565b6000613aa3613a9e84613a50565b613968565b905082815260208101848484011115613abf57613abe613a4b565b5b613aca848285613a81565b509392505050565b600082601f830112613ae757613ae6613903565b5b8135613af7848260208601613a90565b91505092915050565b600080600080600060a08688031215613b1c57613b1b613601565b5b6000613b2a88828901613654565b9550506020613b3b88828901613654565b945050604086013567ffffffffffffffff811115613b5c57613b5b613606565b5b613b6888828901613a1d565b935050606086013567ffffffffffffffff811115613b8957613b88613606565b5b613b9588828901613a1d565b925050608086013567ffffffffffffffff811115613bb657613bb5613606565b5b613bc288828901613ad2565b9150509295509295909350565b600080fd5b60008083601f840112613bea57613be9613903565b5b8235905067ffffffffffffffff811115613c0757613c06613bcf565b5b602083019150836001820283011115613c2357613c226139af565b5b9250929050565b60008060208385031215613c4157613c40613601565b5b600083013567ffffffffffffffff811115613c5f57613c5e613606565b5b613c6b85828601613bd4565b92509250509250929050565b600067ffffffffffffffff821115613c9257613c91613908565b5b602082029050602081019050919050565b6000613cb6613cb184613c77565b613968565b90508083825260208201905060208402830185811115613cd957613cd86139af565b5b835b81811015613d025780613cee8882613654565b845260208401935050602081019050613cdb565b5050509392505050565b600082601f830112613d2157613d20613903565b5b8135613d31848260208601613ca3565b91505092915050565b60008060408385031215613d5157613d50613601565b5b600083013567ffffffffffffffff811115613d6f57613d6e613606565b5b613d7b85828601613d0c565b925050602083013567ffffffffffffffff811115613d9c57613d9b613606565b5b613da885828601613a1d565b9150509250929050565b600081519050919050565b600082825260208201905092915050565b6000819050602082019050919050565b613de781613669565b82525050565b6000613df98383613dde565b60208301905092915050565b6000602082019050919050565b6000613e1d82613db2565b613e278185613dbd565b9350613e3283613dce565b8060005b83811015613e63578151613e4a8882613ded565b9750613e5583613e05565b925050600181019050613e36565b5085935050505092915050565b60006020820190508181036000830152613e8a8184613e12565b905092915050565b600081519050919050565b600082825260208201905092915050565b6000613eb982613e92565b613ec38185613e9d565b9350613ed381856020860161380d565b613edc81613840565b840191505092915050565b6000604082019050613efc600083018561379a565b8181036020830152613f0e8184613eae565b90509392505050565b6000819050919050565b613f2a81613f17565b82525050565b6000602082019050613f456000830184613f21565b92915050565b613f548161378e565b8114613f5f57600080fd5b50565b600081359050613f7181613f4b565b92915050565b60008060408385031215613f8e57613f8d613601565b5b6000613f9c85828601613654565b9250506020613fad85828601613f62565b9150509250929050565b60008060408385031215613fce57613fcd613601565b5b6000613fdc85828601613654565b9250506020613fed85828601613654565b9150509250929050565b600080600080600060a0868803121561401357614012613601565b5b600061402188828901613654565b955050602061403288828901613654565b94505060406140438882890161368a565b93505060606140548882890161368a565b925050608086013567ffffffffffffffff81111561407557614074613606565b5b61408188828901613ad2565b9150509295509295909350565b61409781613f17565b81146140a257600080fd5b50565b6000813590506140b48161408e565b92915050565b600080604083850312156140d1576140d0613601565b5b60006140df858286016140a5565b92505060206140f085828601613f62565b9150509250929050565b7f455243313135353a2061646472657373207a65726f206973206e6f742061207660008201527f616c6964206f776e657200000000000000000000000000000000000000000000602082015250565b6000614156602a836137fc565b9150614161826140fa565b604082019050919050565b6000602082019050818103600083015261418581614149565b9050919050565b7f4e487b7100000000000000000000000000000000000000000000000000000000600052602260045260246000fd5b600060028204905060018216806141d357607f821691505b6020821081036141e6576141e561418c565b5b50919050565b7f4e487b7100000000000000000000000000000000000000000000000000000000600052603260045260246000fd5b7f4e487b7100000000000000000000000000000000000000000000000000000000600052601160045260246000fd5b600061425582613669565b91507fffffffffffffffffffffffffffffffffffffffffffffffffffffffffffffffff82036142875761428661421b565b5b600182019050919050565b7f455243313135353a2063616c6c6572206973206e6f7420746f6b656e206f776e60008201527f6572206e6f7220617070726f7665640000000000000000000000000000000000602082015250565b60006142ee602f836137fc565b91506142f982614292565b604082019050919050565b6000602082019050818103600083015261431d816142e1565b9050919050565b600061432f82613669565b915061433a83613669565b92508282101561434d5761434c61421b565b5b828203905092915050565b600061436382613669565b915061436e83613669565b9250827fffffffffffffffffffffffffffffffffffffffffffffffffffffffffffffffff038211156143a3576143a261421b565b5b828201905092915050565b7f455243313135353a206163636f756e747320616e6420696473206c656e67746860008201527f206d69736d617463680000000000000000000000000000000000000000000000602082015250565b600061440a6029836137fc565b9150614415826143ae565b604082019050919050565b60006020820190508181036000830152614439816143fd565b9050919050565b6000604082019050614455600083018561379a565b81810360208301526144678184613851565b90509392505050565b7f4d7573742062652070726f706f736564206f776e657200000000000000000000600082015250565b60006144a66016836137fc565b91506144b182614470565b602082019050919050565b600060208201905081810360008301526144d581614499565b9050919050565b6000815190506144eb81613673565b92915050565b60006020828403121561450757614506613601565b5b6000614515848285016144dc565b91505092915050565b600060408201905061453360008301856138d9565b61454060208301846136df565b9392505050565b60008151905061455681613f4b565b92915050565b60006020828403121561457257614571613601565b5b600061458084828501614547565b91505092915050565b7f556e61626c6520746f207472616e736665720000000000000000000000000000600082015250565b60006145bf6012836137fc565b91506145ca82614589565b602082019050919050565b600060208201905081810360008301526145ee816145b2565b9050919050565b600061460082613669565b915061460b83613669565b9250817fffffffffffffffffffffffffffffffffffffffffffffffffffffffffffffffff04831182151516156146445761464361421b565b5b828202905092915050565b7f536f75726365206d75737420626520746865206f7261636c65206f662074686560008201527f2072657175657374000000000000000000000000000000000000000000000000602082015250565b60006146ab6028836137fc565b91506146b68261464f565b604082019050919050565b600060208201905081810360008301526146da8161469e565b9050919050565b60008190508160005260206000209050919050565b60008154614703816141bb565b61470d81866137fc565b94506001821660008114614728576001811461473a5761476d565b60ff198316865260208601935061476d565b614743856146e1565b60005b8381101561476557815481890152600182019150602081019050614746565b808801955050505b50505092915050565b600060408201905061478b600083018561379a565b818103602083015261479d81846146f6565b90509392505050565b600081905092915050565b7f68747470733a2f2f6c617a796d696e742d636861696e6c696e6b2e766572636560008201527f6c2e6170702f6170692f706f61703f616464726573733d307800000000000000602082015250565b600061480d6039836147a6565b9150614818826147b1565b603982019050919050565b600061482e826137f1565b61483881856147a6565b935061484881856020860161380d565b80840191505092915050565b600061485f82614800565b915061486b8284614823565b915081905092915050565b7f455243313135353a2069647320616e6420616d6f756e7473206c656e6774682060008201527f6d69736d61746368000000000000000000000000000000000000000000000000602082015250565b60006148d26028836137fc565b91506148dd82614876565b604082019050919050565b60006020820190508181036000830152614901816148c5565b9050919050565b7f455243313135353a207472616e7366657220746f20746865207a65726f20616460008201527f6472657373000000000000000000000000000000000000000000000000000000602082015250565b60006149646025836137fc565b915061496f82614908565b604082019050919050565b6000602082019050818103600083015261499381614957565b9050919050565b7f455243313135353a20696e73756666696369656e742062616c616e636520666f60008201527f72207472616e7366657200000000000000000000000000000000000000000000602082015250565b60006149f6602a836137fc565b9150614a018261499a565b604082019050919050565b60006020820190508181036000830152614a25816149e9565b9050919050565b60006040820190508181036000830152614a468185613e12565b90508181036020830152614a5a8184613e12565b90509392505050565b7f455243313135353a206d696e7420746f20746865207a65726f2061646472657360008201527f7300000000000000000000000000000000000000000000000000000000000000602082015250565b6000614abf6021836137fc565b9150614aca82614a63565b604082019050919050565b60006020820190508181036000830152614aee81614ab2565b9050919050565b6000604082019050614b0a60008301856136df565b614b1760208301846136df565b9392505050565b7f4f6e6c792063616c6c61626c65206279206f776e657200000000000000000000600082015250565b6000614b546016836137fc565b9150614b5f82614b1e565b602082019050919050565b60006020820190508181036000830152614b8381614b47565b9050919050565b7f455243313135353a2073657474696e6720617070726f76616c2073746174757360008201527f20666f722073656c660000000000000000000000000000000000000000000000602082015250565b6000614be66029836137fc565b9150614bf182614b8a565b604082019050919050565b60006020820190508181036000830152614c1581614bd9565b9050919050565b7f43616e6e6f74207472616e7366657220746f2073656c66000000000000000000600082015250565b6000614c526017836137fc565b9150614c5d82614c1c565b602082019050919050565b60006020820190508181036000830152614c8181614c45565b9050919050565b7f4e487b7100000000000000000000000000000000000000000000000000000000600052603160045260246000fd5b60008160011c9050919050565b6000808291508390505b6001851115614d0e57808604811115614cea57614ce961421b565b5b6001851615614cf95780820291505b8081029050614d0785614cb7565b9450614cce565b94509492505050565b600082614d275760019050614de3565b81614d355760009050614de3565b8160018114614d4b5760028114614d5557614d84565b6001915050614de3565b60ff841115614d6757614d6661421b565b5b8360020a915084821115614d7e57614d7d61421b565b5b50614de3565b5060208310610133831016604e8410600b8410161715614db95782820a905083811115614db457614db361421b565b5b614de3565b614dc68484846001614cc4565b92509050818404811115614ddd57614ddc61421b565b5b81810290505b9392505050565b6000614df582613669565b9150614e0083613669565b9250614e2d7fffffffffffffffffffffffffffffffffffffffffffffffffffffffffffffffff8484614d17565b905092915050565b7f4e487b7100000000000000000000000000000000000000000000000000000000600052601260045260246000fd5b6000614e6f82613669565b9150614e7a83613669565b925082614e8a57614e89614e35565b5b828204905092915050565b600060ff82169050919050565b6000614ead82614e95565b9150614eb883614e95565b925082614ec857614ec7614e35565b5b828204905092915050565b6000614ede82614e95565b9150614ee983614e95565b92508160ff0483118215151615614f0357614f0261421b565b5b828202905092915050565b6000614f1982614e95565b9150614f2483614e95565b925082821015614f3757614f3661421b565b5b828203905092915050565b600060a082019050614f5760008301886138d9565b614f6460208301876138d9565b8181036040830152614f768186613e12565b90508181036060830152614f8a8185613e12565b90508181036080830152614f9e8184613eae565b90509695505050505050565b600081519050614fb981613735565b92915050565b600060208284031215614fd557614fd4613601565b5b6000614fe384828501614faa565b91505092915050565b60008160e01c9050919050565b600060033d11156150185760046000803e615015600051614fec565b90505b90565b600060443d106150a85761502d6135f7565b60043d036004823e80513d602482011167ffffffffffffffff821117156150555750506150a8565b808201805167ffffffffffffffff81111561507357505050506150a8565b80602083010160043d0385018111156150905750505050506150a8565b61509f82602001850186613937565b82955050505050505b90565b7f455243313135353a207472616e7366657220746f206e6f6e204552433131353560008201527f526563656976657220696d706c656d656e746572000000000000000000000000602082015250565b60006151076034836137fc565b9150615112826150ab565b604082019050919050565b60006020820190508181036000830152615136816150fa565b9050919050565b7f455243313135353a204552433131353552656365697665722072656a6563746560008201527f6420746f6b656e73000000000000000000000000000000000000000000000000602082015250565b60006151996028836137fc565b91506151a48261513d565b604082019050919050565b600060208201905081810360008301526151c88161518c565b9050919050565b600060a0820190506151e460008301886138d9565b6151f160208301876138d9565b6151fe60408301866136df565b61520b60608301856136df565b818103608083015261521d8184613eae565b90509695505050505050565b61523281613709565b82525050565b60006101008201905061524e600083018b6138d9565b61525b602083018a6136df565b6152686040830189613f21565b61527560608301886138d9565b6152826080830187615229565b61528f60a08301866136df565b61529c60c08301856136df565b81810360e08301526152ae8184613eae565b90509998505050505050505050565b60006152c882614e95565b91506152d383614e95565b92508260ff038211156152e9576152e861421b565b5b828201905092915050565b60006152ff82613669565b915061530a83613669565b92508261531a57615319614e35565b5b828206905092915050565b6000819050919050565b600061534a6153456153408461360b565b615325565b61360b565b9050919050565b600061535c8261532f565b9050919050565b600061536e82615351565b9050919050565b60008160601b9050919050565b600061538d82615375565b9050919050565b600061539f82615382565b9050919050565b6153b76153b282615363565b615394565b82525050565b6000819050919050565b6153d86153d382613669565b6153bd565b82525050565b60006153ea82856153a6565b6014820191506153fa82846153c7565b6020820191508190509392505050565b600060608201905061541f60008301866138d9565b61542c60208301856136df565b818103604083015261543e8184613eae565b9050949350505050565b7f756e61626c6520746f207472616e73666572416e6443616c6c20746f206f726160008201527f636c650000000000000000000000000000000000000000000000000000000000602082015250565b60006154a46023836137fc565b91506154af82615448565b604082019050919050565b600060208201905081810360008301526154d381615497565b905091905056fea264697066735822122025cbfc849f25a8ab3eeb370d13e9db20583c66fad7f69e58791be631684272fc64736f6c634300080e0033",
  "devdoc": {
    "kind": "dev",
    "methods": {
      "balanceOf(address,uint256)": {
        "details": "See {IERC1155-balanceOf}. Requirements: - `account` cannot be the zero address."
      },
      "balanceOfBatch(address[],uint256[])": {
        "details": "See {IERC1155-balanceOfBatch}. Requirements: - `accounts` and `ids` must have the same length."
      },
      "isApprovedForAll(address,address)": {
        "details": "See {IERC1155-isApprovedForAll}."
      },
      "safeBatchTransferFrom(address,address,uint256[],uint256[],bytes)": {
        "details": "See {IERC1155-safeBatchTransferFrom}."
      },
      "safeTransferFrom(address,address,uint256,uint256,bytes)": {
        "details": "See {IERC1155-safeTransferFrom}."
      },
      "setApprovalForAll(address,bool)": {
        "details": "See {IERC1155-setApprovalForAll}."
      },
      "supportsInterface(bytes4)": {
        "details": "See {IERC165-supportsInterface}."
      },
      "uri(uint256)": {
        "details": "See {IERC1155MetadataURI-uri}. This implementation returns the same URI for *all* token types. It relies on the token type ID substitution mechanism https://eips.ethereum.org/EIPS/eip-1155#metadata[defined in the EIP]. Clients calling this function must replace the `\\{id\\}` substring with the actual token type ID."
      }
    },
    "version": 1
  },
  "userdoc": {
    "kind": "user",
    "methods": {
      "acceptOwnership()": {
        "notice": "Allows an ownership transfer to be completed by the recipient."
      },
      "interval()": {
        "notice": "Use an interval in seconds and a timestamp to slow execution of Upkeep"
      },
      "owner()": {
        "notice": "Get the current owner"
      },
      "transferOwnership(address)": {
        "notice": "Allows an owner to begin transferring ownership to a new address, pending."
      },
      "withdrawLink()": {
        "notice": "Allow withdraw of Link tokens from the contract"
      }
    },
    "version": 1
  },
  "storageLayout": {
    "storage": [
      {
        "astId": 2570,
        "contract": "contracts/LazyNFT.sol:LazyNFT",
        "label": "_balances",
        "offset": 0,
        "slot": "0",
        "type": "t_mapping(t_uint256,t_mapping(t_address,t_uint256))"
      },
      {
        "astId": 2576,
        "contract": "contracts/LazyNFT.sol:LazyNFT",
        "label": "_operatorApprovals",
        "offset": 0,
        "slot": "1",
        "type": "t_mapping(t_address,t_mapping(t_address,t_bool))"
      },
      {
        "astId": 2578,
        "contract": "contracts/LazyNFT.sol:LazyNFT",
        "label": "_uri",
        "offset": 0,
        "slot": "2",
        "type": "t_string_storage"
      },
      {
        "astId": 358,
        "contract": "contracts/LazyNFT.sol:LazyNFT",
        "label": "s_ens",
        "offset": 0,
        "slot": "3",
        "type": "t_contract(ENSInterface)1214"
      },
      {
        "astId": 360,
        "contract": "contracts/LazyNFT.sol:LazyNFT",
        "label": "s_ensNode",
        "offset": 0,
        "slot": "4",
        "type": "t_bytes32"
      },
      {
        "astId": 363,
        "contract": "contracts/LazyNFT.sol:LazyNFT",
        "label": "s_link",
        "offset": 0,
        "slot": "5",
        "type": "t_contract(LinkTokenInterface)1309"
      },
      {
        "astId": 366,
        "contract": "contracts/LazyNFT.sol:LazyNFT",
        "label": "s_oracle",
        "offset": 0,
        "slot": "6",
        "type": "t_contract(OperatorInterface)1389"
      },
      {
        "astId": 369,
        "contract": "contracts/LazyNFT.sol:LazyNFT",
        "label": "s_requestCount",
        "offset": 0,
        "slot": "7",
        "type": "t_uint256"
      },
      {
        "astId": 373,
        "contract": "contracts/LazyNFT.sol:LazyNFT",
        "label": "s_pendingRequests",
        "offset": 0,
        "slot": "8",
        "type": "t_mapping(t_bytes32,t_address)"
      },
      {
        "astId": 928,
        "contract": "contracts/LazyNFT.sol:LazyNFT",
        "label": "s_owner",
        "offset": 0,
        "slot": "9",
        "type": "t_address"
      },
      {
        "astId": 930,
        "contract": "contracts/LazyNFT.sol:LazyNFT",
        "label": "s_pendingOwner",
        "offset": 0,
        "slot": "10",
        "type": "t_address"
      },
      {
        "astId": 4609,
        "contract": "contracts/LazyNFT.sol:LazyNFT",
        "label": "volume",
        "offset": 0,
        "slot": "11",
        "type": "t_uint256"
      },
      {
        "astId": 4611,
        "contract": "contracts/LazyNFT.sol:LazyNFT",
        "label": "jobId",
        "offset": 0,
        "slot": "12",
        "type": "t_bytes32"
      },
      {
        "astId": 4613,
        "contract": "contracts/LazyNFT.sol:LazyNFT",
        "label": "fee",
        "offset": 0,
        "slot": "13",
        "type": "t_uint256"
      },
      {
        "astId": 4615,
        "contract": "contracts/LazyNFT.sol:LazyNFT",
        "label": "approved",
        "offset": 0,
        "slot": "14",
        "type": "t_bool"
      },
      {
        "astId": 4617,
        "contract": "contracts/LazyNFT.sol:LazyNFT",
        "label": "urlTest",
        "offset": 0,
        "slot": "15",
        "type": "t_string_storage"
      },
      {
        "astId": 4627,
        "contract": "contracts/LazyNFT.sol:LazyNFT",
        "label": "counter",
        "offset": 0,
        "slot": "16",
        "type": "t_uint256"
      },
      {
        "astId": 4632,
        "contract": "contracts/LazyNFT.sol:LazyNFT",
        "label": "lastTimeStamp",
        "offset": 0,
        "slot": "17",
        "type": "t_uint256"
      },
      {
        "astId": 4635,
        "contract": "contracts/LazyNFT.sol:LazyNFT",
        "label": "addressesToVerify",
        "offset": 0,
        "slot": "18",
        "type": "t_array(t_address)dyn_storage"
      },
      {
        "astId": 4639,
        "contract": "contracts/LazyNFT.sol:LazyNFT",
        "label": "watchers",
        "offset": 0,
        "slot": "19",
        "type": "t_mapping(t_address,t_bool)"
      },
      {
        "astId": 4643,
        "contract": "contracts/LazyNFT.sol:LazyNFT",
        "label": "responseID",
        "offset": 0,
        "slot": "20",
        "type": "t_mapping(t_bytes32,t_address)"
      },
      {
        "astId": 4758,
        "contract": "contracts/LazyNFT.sol:LazyNFT",
        "label": "lastChecked",
        "offset": 0,
        "slot": "21",
        "type": "t_string_storage"
      },
      {
        "astId": 4537,
        "contract": "contracts/LazyNFT.sol:LazyNFT",
        "label": "minted",
        "offset": 0,
        "slot": "22",
        "type": "t_mapping(t_address,t_bool)"
      }
    ],
    "types": {
      "t_address": {
        "encoding": "inplace",
        "label": "address",
        "numberOfBytes": "20"
      },
      "t_array(t_address)dyn_storage": {
        "base": "t_address",
        "encoding": "dynamic_array",
        "label": "address[]",
        "numberOfBytes": "32"
      },
      "t_bool": {
        "encoding": "inplace",
        "label": "bool",
        "numberOfBytes": "1"
      },
      "t_bytes32": {
        "encoding": "inplace",
        "label": "bytes32",
        "numberOfBytes": "32"
      },
      "t_contract(ENSInterface)1214": {
        "encoding": "inplace",
        "label": "contract ENSInterface",
        "numberOfBytes": "20"
      },
      "t_contract(LinkTokenInterface)1309": {
        "encoding": "inplace",
        "label": "contract LinkTokenInterface",
        "numberOfBytes": "20"
      },
      "t_contract(OperatorInterface)1389": {
        "encoding": "inplace",
        "label": "contract OperatorInterface",
        "numberOfBytes": "20"
      },
      "t_mapping(t_address,t_bool)": {
        "encoding": "mapping",
        "key": "t_address",
        "label": "mapping(address => bool)",
        "numberOfBytes": "32",
        "value": "t_bool"
      },
      "t_mapping(t_address,t_mapping(t_address,t_bool))": {
        "encoding": "mapping",
        "key": "t_address",
        "label": "mapping(address => mapping(address => bool))",
        "numberOfBytes": "32",
        "value": "t_mapping(t_address,t_bool)"
      },
      "t_mapping(t_address,t_uint256)": {
        "encoding": "mapping",
        "key": "t_address",
        "label": "mapping(address => uint256)",
        "numberOfBytes": "32",
        "value": "t_uint256"
      },
      "t_mapping(t_bytes32,t_address)": {
        "encoding": "mapping",
        "key": "t_bytes32",
        "label": "mapping(bytes32 => address)",
        "numberOfBytes": "32",
        "value": "t_address"
      },
      "t_mapping(t_uint256,t_mapping(t_address,t_uint256))": {
        "encoding": "mapping",
        "key": "t_uint256",
        "label": "mapping(uint256 => mapping(address => uint256))",
        "numberOfBytes": "32",
        "value": "t_mapping(t_address,t_uint256)"
      },
      "t_string_storage": {
        "encoding": "bytes",
        "label": "string",
        "numberOfBytes": "32"
      },
      "t_uint256": {
        "encoding": "inplace",
        "label": "uint256",
        "numberOfBytes": "32"
      }
    }
  }
}